:020000040800F2
:1080000000500020F5BA0008A9BA0008ADBA00086F
:10801000B1BA0008B5BA0008B9BA000800000000FB
:10802000000000000000000000000000BDBA0008D1
:10803000C1BA000800000000C5BA0008C9BA0008AB
:108040003DBB00083DBB00083DBB00083DBB000830
:108050003DBB00083DBB00083DBB00083DBB000820
:108060003DBB00083DBB00083DBB00083DBB000810
:108070003DBB00083DBB00083DBB00083DBB000800
:108080003DBB00083DBB00083DBB00083DBB0008F0
:108090003DBB00083DBB00083DBB00083DBB0008E0
:1080A0003DBB00083DBB00083DBB00083DBB0008D0
:1080B000CDBA00083DBB00083DBB00083DBB000831
:1080C0003DBB00083DBB00083DBB00083DBB0008B0
:1080D0003DBB00083DBB00083DBB0008D9BA000805
:1080E0003DBB00083DBB00083DBB00080000000090
:1080F0000000000000000000000000000000000080
:0C81000000000000000000005FF808F123
:1081100010B5054C237833B9044B13B10448AFF3C1
:1081200000800123237010BD20000020000000000B
:1081300068DF000808B5034B1BB103490348AFF3E0
:10814000008008BD000000002400002068DF000857
:1081500081F0004102E000BF83F0004330B54FEAF8
:1081600041044FEA430594EA050F08BF90EA020F65
:108170001FBF54EA000C55EA020C7FEA645C7FEAF8
:10818000655C00F0E2804FEA5454D4EB5555B8BF1B
:108190006D420CDD2C4480EA020281EA030382EA8C
:1081A000000083EA010180EA020281EA0303362D1E
:1081B00088BF30BD11F0004F4FEA01314FF4801CF1
:1081C0004CEA113102D0404261EB410113F0004F03
:1081D0004FEA03334CEA133302D0524263EB4303BA
:1081E00094EA050F00F0A780A4F10104D5F1200E58
:1081F0000DDB02FA0EFC22FA05F2801841F10001B3
:1082000003FA0EF2801843FA05F359410EE0A5F186
:1082100020050EF1200E012A03FA0EFC28BF4CF0B7
:10822000020C43FA05F3C01851EBE37101F000456D
:1082300007D54FF0000EDCF1000C7EEB00006EEB7A
:108240000101B1F5801F1BD3B1F5001F0CD3490804
:108250005FEA30004FEA3C0C04F101044FEA44525B
:1082600012F5800F80F09A80BCF1004F08BF5FEAE2
:10827000500C50F1000041EB045141EA050130BDC2
:108280005FEA4C0C404141EB0101013C28BFB1F5D4
:10829000801FE9D291F0000F04BF01460020B1FA1F
:1082A00081F308BF2033A3F10B03B3F120020CDAF2
:1082B0000C3208DD02F1140CC2F10C0201FA0CF0D0
:1082C00021FA02F10CE002F11402D8BFC2F1200C35
:1082D00001FA02F120FA0CFCDCBF41EA0C019040EB
:1082E000E41AA2BF01EB0451294330BD6FEA040434
:1082F0001F3C1CDA0C340EDC04F11404C4F120021F
:1083000020FA04F001FA02F340EA030021FA04F330
:1083100045EA030130BDC4F10C04C4F1200220FA87
:1083200002F001FA04F340EA0300294630BD21FAC5
:1083300004F0294630BD94F0000F83F4801306BF8B
:1083400081F480110134013D4EE77FEA645C18BF7F
:108350007FEA655C29D094EA050F08BF90EA020F16
:1083600005D054EA000C04BF1946104630BD91EA0E
:10837000030F1EBF0021002030BD5FEA545C05D111
:108380004000494128BF41F0004130BD14F5800450
:108390003CBF01F5801130BD01F0004545F0FE41C4
:1083A00041F470014FF0000030BD7FEA645C1ABFF9
:1083B000194610467FEA655C1CBF0B46024650EA30
:1083C000013406BF52EA033591EA030F41F400215C
:1083D00030BD00BF90F0000F04BF0021704730B5E2
:1083E0004FF4806404F132044FF000054FF00001B7
:1083F00050E700BF90F0000F04BF0021704730B578
:108400004FF4806404F1320410F0004548BF40424C
:108410004FF000013EE700BF42004FEAE2014FEAA1
:1084200031014FEA02701FBF12F07F4393F07F4F7C
:1084300081F06051704732F07F4208BF704793F07F
:108440007F4F04BF41F40021704730B54FF4607492
:1084500001F0004521F000411CE700BF50EA010295
:1084600008BF704730B54FF000050AE050EA01023E
:1084700008BF704730B511F0004502D5404261EBAE
:1084800041014FF4806404F132045FEA915C3FF4EF
:10849000D8AE4FF003025FEADC0C18BF03325FEA8C
:1084A000DC0C18BF033202EBDC02C2F1200300FA3D
:1084B00003FC20FA02F001FA03FE40EA0E0021FA62
:1084C00002F11444BDE600BF70B54FF0FF0C4CF450
:1084D000E06C1CEA11541DBF1CEA135594EA0C0F02
:1084E00095EA0C0F00F0DEF82C4481EA030621EA3D
:1084F0004C5123EA4C5350EA013518BF52EA033578
:1085000041F4801143F4801338D0A0FB02CE4FF029
:108510000005E1FB02E506F00042E0FB03E54FF059
:108520000006E1FB03569CF0000F18BF4EF0010E51
:10853000A4F1FF04B6F5007F64F5407404D25FEA4D
:108540004E0E6D4146EB060642EAC62141EA555100
:108550004FEAC52040EA5E504FEACE2EB4F1FD0C42
:1085600088BFBCF5E06F1ED8BEF1004F08BF5FEAC0
:10857000500E50F1000041EB045170BD06F0004672
:1085800046EA010140EA020081EA0301B4EB5C041F
:10859000C2BFD4EB0C0541EA045170BD41F4801117
:1085A0004FF0000E013C00F3AB8014F1360FDEBF3C
:1085B000002001F0004170BDC4F10004203C35DA18
:1085C0000C341BDC04F11404C4F1200500FA05F39B
:1085D00020FA04F001FA05F240EA020001F000423C
:1085E00021F0004110EBD37021FA04F642EB0601B2
:1085F0005EEA430E08BF20EAD37070BDC4F10C04DC
:10860000C4F1200500FA04F320FA05F001FA04F29F
:1086100040EA020001F0004110EBD37041F100018B
:108620005EEA430E08BF20EAD37070BDC4F1200596
:1086300000FA05F24EEA020E20FA04F301FA05F2FE
:1086400043EA020321FA04F001F0004121FA04F2A6
:1086500020EA020000EBD3705EEA430E08BF20EA76
:10866000D37070BD94F0000F0FD101F000464000B0
:1086700041EB010111F4801F08BF013CF7D041EA32
:10868000060195F0000F18BF704703F00046520036
:1086900043EB030313F4801F08BF013DF7D043EA07
:1086A0000603704794EA0C0F0CEA135518BF95EABD
:1086B0000C0F0CD050EA410618BF52EA4306D1D144
:1086C00081EA030101F000414FF0000070BD50EA63
:1086D000410606BF1046194652EA430619D094EAED
:1086E0000C0F02D150EA013613D195EA0C0F05D1D7
:1086F00052EA03361CBF104619460AD181EA03012B
:1087000001F0004141F0FE4141F470014FF00000E2
:1087100070BD41F0FE4141F4780170BD70B54FF07D
:10872000FF0C4CF4E06C1CEA11541DBF1CEA1355FD
:1087300094EA0C0F95EA0C0F00F0A7F8A4EB0504DF
:1087400081EA030E52EA03354FEA013100F08880D6
:108750004FEA03334FF0805545EA131343EA12639F
:108760004FEA022245EA111545EA10654FEA002654
:108770000EF000419D4208BF964244F1FD0404F50D
:10878000407402D25B084FEA3202B61A65EB030569
:108790005B084FEA32024FF480104FF4002CB6EB26
:1087A000020E75EB030E22BFB61A754640EA0C00A6
:1087B0005B084FEA3202B6EB020E75EB030E22BFE6
:1087C000B61A754640EA5C005B084FEA3202B6EB27
:1087D000020E75EB030E22BFB61A754640EA9C00E6
:1087E0005B084FEA3202B6EB020E75EB030E22BFB6
:1087F000B61A754640EADC0055EA060E18D04FEA74
:10880000051545EA16754FEA06164FEAC30343EA13
:1088100052734FEAC2025FEA1C1CC0D111F4801FE0
:108820000BD141EA00014FF000004FF0004CB6E7D9
:1088300011F4801F04BF01430020B4F1FD0C88BF78
:10884000BCF5E06F3FF6AFAEB5EB030C04BFB6EB83
:10885000020C5FEA500C50F1000041EB045170BD76
:108860000EF0004E4EEA113114EB5C04C2BFD4EBA3
:108870000C0541EA045170BD41F480114FF0000E27
:10888000013C90E645EA060E8DE60CEA135594EAA3
:108890000C0F08BF95EA0C0F3FF43BAF94EA0C0FA6
:1088A0000AD150EA01347FF434AF95EA0C0F7FF41B
:1088B00025AF104619462CE795EA0C0F06D152EA6F
:1088C00003353FF4FDAE1046194622E750EA410653
:1088D00018BF52EA43067FF4C5AE50EA41047FF464
:1088E0000DAF52EA43057FF4EBAE12E74FF0FF3CC9
:1088F00006E000BF4FF0010C02E000BF4FF0010C9A
:108900004DF804CD4FEA410C7FEA6C5C4FEA430C12
:1089100018BF7FEA6C5C1BD001B050EA410C0CBF61
:1089200052EA430C91EA030F02BF90EA020F0020C3
:10893000704710F1000F91EA030F58BF994208BF2A
:1089400090422CBFD8176FEAE37040F001007047E7
:108950004FEA410C7FEA6C5C02D150EA013C07D13E
:108960004FEA430C7FEA6C5CD6D152EA033CD3D089
:108970005DF8040B704700BF8446104662468C4683
:108980001946634600E000BF01B5FFF7B7FF0028B6
:1089900048BF10F1000F01BD4DF808EDFFF7F4FFDF
:1089A0000CBF012000205DF808FB00BF4DF808ED6A
:1089B000FFF7EAFF34BF012000205DF808FB00BF8D
:1089C0004DF808EDFFF7E0FF94BF012000205DF8AF
:1089D00008FB00BF4DF808EDFFF7CEFF94BF012064
:1089E00000205DF808FB00BF4DF808EDFFF7C4FF5D
:1089F00034BF012000205DF808FB00BF4FEA4102B0
:108A0000B2F1E04324BFB3F5001CDCF1FE5C0DD9EC
:108A100001F0004C4FEAC0024CEA5070B2F1004F36
:108A200040EB830008BF20F00100704711F0804F39
:108A300021D113F13872BCBF01F00040704741F4FE
:108A400080114FEA5252C2F11802C2F1200C10FA02
:108A50000CF320FA02F018BF40F001004FEAC123E6
:108A60004FEAD32303FA0CFC40EA0C0023FA02F38A
:108A70004FEA4303CCE77FEA625307D150EA013360
:108A80001EBF4FF0FE4040F44000704701F0004030
:108A900040F0FE4040F40000704700BF80F000400E
:108AA00002E000BF81F0004142001FBF5FEA4103C6
:108AB00092EA030F7FEA226C7FEA236C6AD04FEAC6
:108AC0001262D2EB1363C1BFD2184140484041400B
:108AD000B8BF5B42192B88BF704710F0004F40F4BD
:108AE000000020F07F4018BF404211F0004F41F4D9
:108AF000000121F07F4118BF494292EA030F3FD0A5
:108B0000A2F1010241FA03FC10EB0C00C3F12003B7
:108B100001FA03F100F0004302D5494260EB400046
:108B2000B0F5000F13D3B0F1807F06D340084FEAB1
:108B3000310102F10102FE2A51D2B1F1004F40EBA6
:108B4000C25008BF20F0010040EA0300704749000E
:108B500040EB0000013A28BFB0F5000FEDD2B0FAAB
:108B600080FCACF1080CB2EB0C0200FA0CF0AABFCE
:108B700000EBC25052421843BCBFD040184370476C
:108B800092F0000F81F4000106BF80F40000013272
:108B9000013BB5E74FEA41037FEA226C18BF7FEA49
:108BA000236C21D092EA030F04D092F0000F08BF8B
:108BB0000846704790EA010F1CBF0020704712F072
:108BC0007F4F04D1400028BF40F00040704712F1B1
:108BD00000723CBF00F50000704700F0004343F016
:108BE000FE4040F4000070477FEA226216BF08464C
:108BF0007FEA23630146420206BF5FEA412390EA0F
:108C0000010F40F4800070474FF0000304E000BF04
:108C100010F0004348BF40425FEA000C08BF7047B5
:108C200043F0964301464FF000001CE050EA010279
:108C300008BF70474FF000030AE000BF50EA01028E
:108C400008BF704711F0004302D5404261EB41017B
:108C50005FEA010C02BF84460146002043F0B643A0
:108C600008BFA3F18053A3F50003BCFA8CF2083AC5
:108C7000A3EBC25310DB01FA02FC634400FA02FCCE
:108C8000C2F12002BCF1004F20FA02F243EB0200D5
:108C900008BF20F00100704702F1200201FA02FC37
:108CA000C2F1200250EA4C0021FA02F243EB02002A
:108CB00008BF20EADC7070474FF0FF0C1CEAD0526E
:108CC0001EBF1CEAD15392EA0C0F93EA0C0F6FD02F
:108CD0001A4480EA010C400218BF5FEA41211ED00D
:108CE0004FF0006343EA501043EA5111A0FB0131F9
:108CF0000CF00040B1F5000F3EBF490041EAD371CE
:108D00005B0040EA010062F17F02FD2A1DD8B3F149
:108D1000004F40EBC25008BF20F00100704790F0B8
:108D2000000F0CF0004C08BF49024CEA502040EA0A
:108D300051207F3AC2BFD2F1FF0340EAC2507047D0
:108D400040F400004FF00003013A5DDC12F1190F0E
:108D5000DCBF00F000407047C2F10002410021FA80
:108D600002F1C2F1200200FA02FC5FEA310040F198
:108D7000000053EA4C0308BF20EADC70704792F011
:108D8000000F00F0004C02BF400010F4000F013A49
:108D9000F9D040EA0C0093F0000F01F0004C02BF44
:108DA000490011F4000F013BF9D041EA0C018FE7B3
:108DB0000CEAD15392EA0C0F18BF93EA0C0F0AD0B9
:108DC00030F0004C18BF31F0004CD8D180EA0100DF
:108DD00000F00040704790F0000F17BF90F0004F78
:108DE000084691F0000F91F0004F14D092EA0C0F5A
:108DF00001D142020FD193EA0C0F03D14B0218BFED
:108E0000084608D180EA010000F0004040F0FE4032
:108E100040F40000704740F0FE4040F440007047CE
:108E20004FF0FF0C1CEAD0521EBF1CEAD15392EA4D
:108E30000C0F93EA0C0F69D0A2EB030280EA010C3D
:108E400049024FEA402037D04FF0805343EA1111D6
:108E500043EA10130CF000408B4238BF5B0042F134
:108E60007D024FF4000C8B4224BF5B1A40EA0C00D9
:108E7000B3EB510F24BFA3EB510340EA5C00B3EB0B
:108E8000910F24BFA3EB910340EA9C00B3EBD10FF9
:108E900024BFA3EBD10340EADC001B0118BF5FEA4B
:108EA0001C1CE0D1FD2A3FF650AF8B4240EBC25074
:108EB00008BF20F0010070470CF0004C4CEA502035
:108EC0007F32C2BFD2F1FF0340EAC250704740F484
:108ED00000004FF00003013A37E792F0000F00F076
:108EE000004C02BF400010F4000F013AF9D040EAF4
:108EF0000C0093F0000F01F0004C02BF490011F488
:108F0000000F013BF9D041EA0C0195E70CEAD1537F
:108F100092EA0C0F08D142027FF47DAF93EA0C0F66
:108F20007FF470AF084676E793EA0C0F04D14B024A
:108F30003FF44CAF08466EE730F0004C18BF31F0FC
:108F4000004CCAD130F000427FF45CAF31F00043F6
:108F50007FF43CAF5FE700BF4FF0FF3C06E000BF8F
:108F60004FF0010C02E000BF4FF0010C4DF804CDB2
:108F70004FEA40024FEA41037FEA226C18BF7FEAC2
:108F8000236C11D001B052EA530C18BF90EA010FC4
:108F900058BFB2EB030088BFC81738BF6FEAE17053
:108FA00018BF40F0010070477FEA226C02D15FEAEF
:108FB000402C05D17FEA236CE4D15FEA412CE1D05B
:108FC0005DF8040B704700BF844608466146FFE722
:108FD0000FB5FFF7C9FF002848BF10F1000F0FBD04
:108FE0004DF808EDFFF7F4FF0CBF012000205DF8FD
:108FF00008FB00BF4DF808EDFFF7EAFF34BF012082
:1090000000205DF808FB00BF4DF808EDFFF7E0FF1A
:1090100094BF012000205DF808FB00BF4DF808ED6B
:10902000FFF7D2FF94BF012000205DF808FB00BFCE
:109030004DF808EDFFF7C8FF34BF012000205DF8B0
:1090400008FB00BF42000ED2B2F1FE4F0BD34FF02F
:109050009E03B3EB126209D44FEA002343F00043AE
:1090600023FA02F070474FF00000704712F1610FD1
:1090700001D1420202D14FF0FF3070474FF00000A3
:10908000704700BF10B5294C01222368998E186BD8
:1090900003F0A6FB23680122598FD3F8360003F0B2
:1090A0009FFB23680122B3F84010D86B03F098FBB4
:1090B00023680122B3F84610D3F8420003F090FB76
:1090C000236800229988186803F08AFB236800222D
:1090D0005989D3F8060003F083FB23680022198A1C
:1090E000D86803F07DFB23680022D98AD3F81200E8
:1090F00003F076FB23680022998B986903F070FBDC
:1091000023680022598CD3F81E0003F069FB236802
:109110000022198D586A03F063FB23680022BDE822
:109120001040D98DD3F82A0003F05ABB5800002014
:109130002DE9F04F80460F4616461D4683B0364C4B
:109140009DF830309DF834B001939DF838A09DF81B
:109150003C90FFF797FF226891881068424603F021
:109160003FFB20683A464189D0F8060003F038FBFF
:1091700020683246018AC06803F032FB20682A4624
:10918000C18AD0F8120003F02BFB019B1A4623681A
:10919000998B986903F024FB23685A46598CD3F8BD
:1091A0001E0003F01DFB23685246198D586A03F018
:1091B00017FB23684A46D98DD3F82A0003F010FB29
:1091C000164B1A782368012A0CD0022A1AD092B1C1
:1091D0000022B3F84610D3F8420003B0BDE8F04FC8
:1091E00003F0FEBA0022598FD3F8360003B0BDE871
:1091F000F04F03F0F5BA998E186B03B0BDE8F04F4D
:1092000003F0EEBA0022B3F84010D86B03B0BDE80B
:10921000F04F03F0E5BA00BF5800002044000020E2
:1092200010B4054C2060054C2160054C05492260B6
:1092300010BC0B6003F002BF5C000020580000204F
:109240005400002050000020014B186803F0F6BEC7
:109250005C000020014B186803F01CBF5C0000207C
:10926000038802465D2B41D8402B4DD843B1203BAB
:109270009BB21D2B45D85B4921FA03F3DB0740D590
:1092800053885D2B51D8402B5DD843B1203B9BB216
:109290001D2B36D8534921FA03F3DB0731D59388C8
:1092A0005D2B61D8402B6DD843B1203B9BB21D2B69
:1092B00027D84C4921FA03F3DB0722D5D3885D2B4D
:1092C00071D8402B7DD843B1203B9BB21D2B18D8C1
:1092D000444921FA03F3DB0713D5002310B4424CB1
:1092E0001068516803C4184610BC70477C2B15D811
:1092F0005E2B06D03D495F3B9BB221FA03F3D807B2
:10930000BED40423184670473949413B9BB221FA29
:1093100003F3D907B4D4042318467047A3F5807328
:10932000092BEED853885D2BADD97C2B15D85E2B3D
:10933000E7D02E495F3B9BB221FA03F3D807AED4A6
:109340000423184670472A49413B9BB221FA03F394
:10935000D907A4D4042318467047A3F58073092BBA
:10936000CFD893885D2B9DD97C2B15D85E2BC8D088
:109370001E495F3B9BB221FA03F3D8079ED4042316
:10938000184670471A49413B9BB221FA03F3D907AB
:1093900094D4042318467047A3F58073092BB0D8E2
:1093A000D3885D2B8DD97C2B15D85E2BA9D00F4986
:1093B0005F3B9BB221FA03F3D8078ED404231846EF
:1093C00070470B49413B9BB221FA03F3D90784D480
:1093D000042318467047A3F58073092B7FF67DAFF1
:1093E0008FE700BF8560FF2348000020B9A66920F1
:1093F000BFC81414034B02681B681B689A4203D051
:10940000704700BF5C00002030B57F4C7F4D236863
:109410002A6885B0934200F0FF80002B40F0208145
:109420007B4A7C4B127833F81230223BE72B00F258
:109430002A81DFE813F061022801280128012801B0
:109440005B02280128012801280128015702520245
:10945000280108012D014B0244021B023F01250295
:109460001F023A011602280128012801BA01280129
:1094700028012801B3013A0159010801AD014C014D
:109480002801A001280128012801DD012801280167
:109490000801D001280128013F012801C901280144
:1094A000280128012801280159012801C1012801AA
:1094B0000F022801280109020302FD0128014C01C5
:1094C0002801F601EF01280128012D012801E801FA
:1094D000E301280128019A0128018D01800128015A
:1094E000280128012801280128012D01280128012F
:1094F0002801280128012801280128012801280124
:109500002801280128012801280128012801280113
:109510002801280128012801280128012801280103
:1095200028012801280128012801280128012801F3
:1095300028012801280128012801280128012801E3
:1095400028012801280128012801280128012801D3
:1095500028012801280128012801280128012801C3
:1095600028012801280128012801280128012801B3
:1095700028012801280128012801280128012801A3
:109580002801280128012801280128012801280193
:109590002801280128012801280128012801280183
:1095A0002801280128012801280128012801280173
:1095B0002801280128012801280128012801280163
:1095C0002801280128012801280128012801280153
:1095D0002801280128012801280128012801280143
:1095E0002801280128012801280128012801280133
:1095F0002801790173016C0165015F013B023402AE
:109600002E022C023F0200BF400000205400002028
:109610004400002048000020BD4D2B68002B00F0C6
:109620007281BC4A013312682B60934209D3002136
:10963000B94A2160137829600133DBB2042B13701F
:109640001ED005B030BD0022012303920292019387
:1096500000931A4619461846FFF76AFD23682A68E0
:10966000013393422360ECD3AA4B1B68002BE8D153
:10967000A94A236013780133DBB2042B1370E0D1C5
:1096800000231370DDE7FFF7FDFC23682A68E7E796
:1096900000230122CDE902330193184611460093BD
:1096A000FFF746FD23682A68DAE701230022CDE9A7
:1096B0000232CCE7002101230391CDE9013300916F
:1096C0001A461846FFF734FD23682A68C8E70120C8
:1096D0000023CDE90000CDE902031A461946FFF741
:1096E00027FD23682A68BBE700220123CDE9022277
:1096F0000193D2E7012200230392CDE90122CCE7B6
:1097000001230022CDE9023301920092A1E7012357
:109710000022CDE90233CDE900329BE7002301228C
:109720000193CDE90232B8E701230022CDE90033ED
:10973000CDE902238DE700210123CDE9021101913A
:109740001A4600930846FFF7F3FC23682A6887E768
:1097500001230022CDE90232019300931146104605
:10976000FFF7E6FC23682A687AE7002301220193C9
:10977000CDE90223C9E7012200231146CDE90223E6
:109780001846CDE90022FFF7D3FC23682A6867E773
:10979000012300220193CDE902327EE7012200235A
:1097A000CDE90022CDE90223D8E700220123CDE94B
:1097B0000022CDE90232D1E700210123CDE90111D8
:1097C0001A460391009145E700200123CDE90200EC
:1097D0000193009381E70121002308461A46CDE951
:1097E0000213CDE90011FFF7A3FC23682A6837E7CD
:1097F00000220123CDE902220193AEE701230021DB
:10980000CDE902319BE701220023CDE90223CDE916
:1098100000231FE700230122CDE90233CDE9003305
:1098200018E701220023CDE90022CDE9022311E748
:10983000002001230190CDE90230CAE70123002274
:10984000CDE90232019288E7012300210193CDE99D
:10985000023175E700220123CDE90222CDE9002281
:109860007CE701220023CDE90223EBE7002301225C
:10987000039342E700230122CDE9023301936CE711
:1098800001230021CDE90033CDE9023118E701239E
:10989000C1E7002301220193CDE902325DE70123F4
:1098A0000021CDE90233CDE9003309E7012300218E
:1098B000039302E701220023CDE90222C2E700223E
:1098C0000123CDE90022CDE90232C2E601230022C4
:1098D000CDE90232CDE90032BCE600230122CDE918
:1098E0000232B4E6002301220393AFE600230122F3
:1098F000CDE902330192ABE600230121CDE9023329
:10990000CDE90031DCE6FFF7BDFB2B6889E600BF3F
:109910003C0000205000002044000020002384462A
:10992000BB2200B5164885B00190012102A88DF830
:1099300009308DF80A308DF80B308DF80C308DF829
:1099400008C08DF80D2000F0ABFA0E4BCDF80900E1
:109950001B7853B1012B05D142F228320A2101A80C
:1099600000F0D6FF05B05DF804FB074842F228334B
:109970000A2201A9006803F079FF05B05DF804FB35
:10998000AA030100600000208004002030B52B4CA9
:109990004FF0000C23600346084687B02849DDF8E5
:1099A00028E0284AC1F800E0274D2849137081F8C3
:1099B00000C028607BB1012B3DD100F059FB00F0C5
:1099C00047FF002837D023689988186802F002FF03
:1099D000012809D0286801221D4B1C491A7004F087
:1099E0006FF8002007B030BD00F0A4FB18BB194A87
:1099F00003AB07CA03C3092103A81A7000F0F6FBE2
:109A0000C8B9302000F036FDA8B9134B93E8030025
:109A1000019001A8ADF8081000F098FD58B9302069
:109A200000F03EFE38B9302000F0A6FE18B900F074
:109A300025FB0028CED0042007B030BD78040020DC
:109A40007C040020600000208004002064000020CE
:109A50007504002080DF00088CDF00080122034825
:109A6000034B044900681A7004F02AB880040020EF
:109A70007504002064000020A54B1B7803B97047D3
:109A80002DE9F04FA34D83B02B78012B0CD8A24CBD
:109A90002378AA2B0ED001222146A04B186803B0D0
:109AA000BDE8F04F04F00CB8042001F07DFE03B0D7
:109AB000BDE8F08F01F076FE01220023DFF860821E
:109AC000984FDFF858923A70C8F8003004EB020A59
:109AD000297849B1012921D00120FFF71FFF042671
:109AE000304601F061FEE2E72378002B54D0CB46EC
:109AF00042F2283301225146D9F8000003F058FF02
:109B00000128E9D0821ED2B2012A5AD80122824904
:109B1000DBF8000003F0D4FF0226E1E7237843B925
:109B200042F22832204600F009FF60BB2378AA2BBE
:109B3000D2D142F228320121504600F0FFFE10BB84
:109B40006378032BC8D842F228320221764800F00D
:109B5000F5FEC0B963880093002B00F092800426C4
:109B600003EB060B1FFA8BFB02E05E4500F08B80D7
:109B70003046012142F228320E442044B6B200F0B1
:109B8000DDFE0028F1D0022806464DD0042EA3D0D9
:109B90000120FFF7C3FEA3E742F22833012221464A
:109BA000D9F8000003F004FF0128CB4694D0821EB0
:109BB000D2B2012AAAD9002861D12378AA2B97D042
:109BC0008AE700285BD16378032B85D842F22833DB
:109BD00002225549D9F8000003F0EAFE01283FF4BB
:109BE0007BAF821ED2B2012A90D9002847D1042629
:109BF0006388009333449BB20193019B9E4216D02D
:109C000042F228330122D9F80000A11903F0D0FE56
:109C100001283FF461AF821ED2B2012A7FF676AFEF
:109C200068BB0136B6B2E8E7DFF8F0B06EE7A1191D
:109C300042F228330422D9F80000019103F0B8FE63
:109C400001283FF449AF831EDBB2012B01997FF657
:109C50005DAFA0B9331D9EB20B6801220193D9F804
:109C6000000042F22833A11903F0A2FE01283FF4BC
:109C700033AF831EDBB2012B7FF648AFE8B1064657
:109C800084E74FF0040B42F22832042104EB0B006E
:109C900000F054FE00287FF476AF54F80B200BF14F
:109CA00004039BB20192012142F22832E0181E46C1
:109CB00000F044FE00287FF466AFA35DBB2B7FF469
:109CC0000BAF0099194800F0EBF8019B98427FF424
:109CD00003AF334640F2094201339BB293423FF651
:109CE000FBAE607858B92279022A00F0B3803B7845
:109CF000042B0AD8DFE803F0201C090930003B7868
:109D0000022B38D0032B42D0B3B100232370E3E6FB
:109D10007504002060000020640000208004002002
:109D200070040020740400206600002068000020F9
:109D3000002AEAD102233B7000202070FFF7EEFDDD
:109D4000387800287FF4C4AE504B064601225049B3
:109D5000186803F0B5FEC3E6012AD6D14D4E30682F
:109D600050F8081B00F09CF833685B689842CCD12F
:109D700000233B70E0E70228C7D1E37C012B6ED8BB
:109D80000023012003262370FFF7C8FDA8E6012861
:109D9000BBD1404B66881968D8F80030002E52D0ED
:109DA0003D4803F108020A44101A06F1FF3E02285A
:109DB0001FFA8EFE5FD9BEF1050F5CD94FEA960CF3
:109DC0000CF1FF3C1FFA8CFC02F1040B0BEB8C0B2B
:109DD0009C462F4850F8043F42F8043B9345F9D184
:109DE000634626F0030C1FFA8CF26645934603EB9C
:109DF0000C0024D004EB020C9CF804200BF1010CA5
:109E00001FFA8CFCCDF800B0B44501EB000B8BF8C9
:109E1000082000F1010B12D2009AA4449CF804C05F
:109E200002328B448BF808C01FFA82FC664500F1B1
:109E3000020204D9A4449CF804000A4410720133BD
:109E40007344C8F800300A689342FFF475AF0423E6
:109E50003B7071E701262070FFF760FD40E6022BA2
:109E60007FF453AFD4E9011203233B70094B1B6805
:109E7000C3E9001260E7D81D084E7244084416F882
:109E800001CF00F801CF9042F9D1D8E7800400203B
:109E9000640000207C04002069000020670000208E
:109EA0004B1E033313D802464FF0FF30114410B459
:109EB000084C0244014412F8013F83EA106354F84D
:109EC0002330914283EA0020F5D110BC70474FF057
:109ED000FF30704794DF0008D0B586B0044602F02A
:109EE00095FA012806D0831EDBB2012B05D802208B
:109EF00006B0D0BD042006B0D0BD0028F8D10123A3
:109F00000026012701A902A8CDE902670494059360
:109F100002F0F0FA0128EDD0831EDBB2012BE6D966
:109F20000028E5D102F086FA0128E3D0831EDBB2D7
:109F3000012BDCD9DCE700BFF8B52E4B2E4F0021FA
:109F400018462E4C2E4D3B6005E0AB4220464FF0AC
:109F500001012FD01C46E27F04F12003FF2AF4D137
:109F6000C67F002EF1D101B138601C210430FFF70B
:109F700097FF3B681A6882420BD1214A944235D040
:109F80001E4A934228D01F4A93421CD000263046D6
:109F9000F8BD1A48FFF7A0FF10B105263046F8BDFE
:109FA0001848FFF799FF0028F7D100231E463B60B1
:109FB0003046F8BD144B93F8FF30FF2BF5D00D4B16
:109FC000104A9342E2D113F8013C002BDED1BDE8E8
:109FD000F8400A48FFF780BF0B4B93F8FF30002B87
:109FE000D5D1BDE8F8400748FFF776BFDA7FFF2AF2
:109FF000C6D1DAE7E0EF01088404002000E00108A0
:10A0000000F0010800E8010800EF0108164B844643
:10A010001B6810B5ABB14FF0000E59689A6818690B
:10A02000DC68CCF80C00CCF80010CCF80420CCF89C
:10A03000084059699A69CCF81010CCF81420704681
:10A0400010BD4FF0060E094C0FCCCCF80000CCF838
:10A050000410CCF80820CCF80C3003CCCCF810005D
:10A06000CCF81410704610BD8404002004E00108F0
:10A07000014B1860704700BF9C04002070B5294C4C
:10A08000294D4FF4A07301222146286803F090FC6B
:10A090000328F6D12549264A4FF4A073C4E90012DB
:10A0A000286808221F4903F0E1FB0128064606D074
:10A0B000831EDBB2012B05D80226304670BD042674
:10A0C000304670BD0028F8D14FF4A073082215491E
:10A0D000286803F06DFC01280646F0D0831EDBB231
:10A0E000012BE9D90028E8D123784F2BE7D16378F9
:10A0F0004B2BE4D1A3782B2BE1D1E378522BDED18B
:10A100002379452BDBD16379532BD8D1A379452B08
:10A11000D5D1E379542BD2D14FF47A7001F058FDA8
:10A12000CBE700BF880400209C04002041542B5240
:10A130004553455470B5294C294D4FF4A073012265
:10A140002146286803F034FC0328F6D12549264A25
:10A150004FF4A073C4E90012286808221F4903F0D5
:10A1600085FB0128064606D0831EDBB2012B05D8ED
:10A170000226304670BD0426304670BD0028F8D156
:10A180004FF4A07308221549286803F011FC012838
:10A190000646F0D0831EDBB2012BE9D90028E8D1B6
:10A1A00023784F2BE7D163784B2BE4D1A3782B2B6B
:10A1B000E1D1E378522BDED12379452BDBD16379D2
:10A1C0004E2BD8D1A379452BD5D1E379572BD2D1BA
:10A1D0004FF47A7001F0FCFCCBE700BF880400204C
:10A1E0009C04002041542B52454E45570C2900F247
:10A1F00032812DE9F0410E460746994C994D4FF4B6
:10A20000A07301222146286803F0D2FB0328F6D16F
:10A21000954B4522236044F6415306F107085FFA47
:10A2200088F8B8F1070FA271A38000F016818F4B58
:10A23000DB1B022B40F2CB80731E052B40F2C78044
:10A240003B68C4F80730B308012B00F0A2807A689D
:10A25000032BC4F80B2040F09C80BB68C4F80F307F
:10A260001FFA88F24FF4A0737D49286803F0FEFAC4
:10A27000012800F08B80831EDBB2012B02D8022064
:10A28000BDE8F0810028FBD14FF4A0734246286856
:10A29000734903F08DFB012878D0831EDBB2012BBC
:10A2A000EDD90028ECD1724B21781A7891426DD10A
:10A2B00061785A78914269D1A1789A78914265D1B2
:10A2C000E178DA78914261D121791A7991425DD1B0
:10A2D00061795A79914259D19B79A2799A4255D1A3
:10A2E000B8F1070FCCD0E2793B789A424ED1B8F161
:10A2F000080FC5D0227A7B789A4247D1B8F1090F6E
:10A30000BED0627ABB789A4240D1B8F10A0FB7D07A
:10A31000A27AFB789A4239D1B8F10B0FB0D0E27A29
:10A320003B799A4232D1B8F10C0FA9D0227B7B79CC
:10A330009A422BD1B8F10D0FA2D0627BBB799A4221
:10A3400024D1B8F10E0F9BD0A27BFB799A421DD18C
:10A35000B8F10F0F94D0E27B3B7A9A4216D1B8F154
:10A36000100F8DD0227C7B7A9A420FD1B8F1110F59
:10A3700086D0627CBB7A9A4208D1B8F1130F7FF481
:10A380007FAFA27CFB7A9A423FF47AAF0420BDE80B
:10A39000F08106F0FC03DA1D9E42D2B23FF460AFBA
:10A3A000F95CA15403F10802D2B2591C9045C9B21C
:10A3B0007FF656AF795CA15403F10902D2B20233A1
:10A3C0009045DBB27FF64CAFFB5CA35448E73B788B
:10A3D000B8F1080FE3713FF443AF7B78B8F1090F90
:10A3E00023723FF43DAFBB78B8F10A0F63723FF4BC
:10A3F00037AFFB78B8F10B0FA3723FF431AF3B7965
:10A40000B8F10C0FE3723FF42BAF7B79B8F10D0F6D
:10A4100023733FF425AFBB79B8F10E0F63733FF49C
:10A420001FAFFB79B8F10F0FA3733FF419AF3B7A5D
:10A43000B8F1100FE3733FF413AF7B7AB8F1110F4B
:10A4400023743FF40DAFBB7AB8F1130F637404BFEC
:10A45000FB7AA37404E704207047424602E700BF7A
:10A46000880400209C04002041542B4E8E040020C0
:10A4700000000020A0F13003012B01D90420704717
:10A4800070B505462D4C2E4E4FF4A0730122214687
:10A49000306803F08DFA0328F6D144F64F4E4FF0A2
:10A4A000450C284B0822236024494FF4A0733068E0
:10A4B000E571A4F804E084F806C003F0D7F9012898
:10A4C00010D0821ED2B2012A01D8022070BD00280D
:10A4D000FCD14FF4A07308223068184903F068FAE1
:10A4E000012801D1042070BD821ED2B2012AECD90C
:10A4F0000028EBD1144B227819789142F2D161787F
:10A500005A789142EED1A1789A789142EAD1E178D5
:10A51000DA789142E6D121791A799142E2D16179D2
:10A520005A799142DED1A2799B799A42DAD1E079C7
:10A53000401B18BF0120800070BD00BF88040020B0
:10A540009C04002041542B5200000020F8B50378F1
:10A55000303B092B00F28A8043780546303B092BBB
:10A5600000F1010700F282808378303B092B7DD80F
:10A57000C378303B092B79D80379303B092B75D848
:10A580004379303B092B71D8404C414E4FF4A073B6
:10A5900001222146306803F00BFA0328F6D13D4B27
:10A5A0005322236045F24133A3803B4BA271DB1B56
:10A5B000022B5DD92B68C4F807302B79E3726B79D5
:10A5C00023734FF4A0730D223049306803F04EF925
:10A5D00001284BD0831EDBB2012B01D80220F8BD2D
:10A5E0000028FCD14FF4A0730D223068274903F0F6
:10A5F000DFF901283AD0831EDBB2012BEED9002807
:10A60000EDD1264B21781A7891422FD161785A7872
:10A6100091422BD1A1789A78914227D1E178DA78CA
:10A62000914223D121791A7991421FD161795A79C6
:10A6300091421BD1A2799B799A4217D1E2792B786A
:10A640009A4213D1227A6B789A420FD1627AAB7810
:10A650009A420BD1A27AEB789A4207D1E27A2B790F
:10A660009A4203D1227B6B799A42B8D00420F8BD7C
:10A670002B78E3716B782372AB786372EB78A372FB
:10A680002B79E3726B7923739BE700BF880400206A
:10A690009C04002041542B508F0400200000002017
:10A6A00000F0FD03302B01D00420704770B5064642
:10A6B0002D4C2E4D4FF4A07301222146286803F043
:10A6C00077F90328F6D145F2590E4FF0450C284B87
:10A6D0000822236024494FF4A0732868E671A4F887
:10A6E00004E084F806C003F0C1F8012805D0831EF9
:10A6F000DBB2012B03D8022070BD042070BD0028FE
:10A70000FAD14FF4A07308222868174903F050F9D2
:10A710000128F2D0831EDBB2012BECD90028EBD14B
:10A72000144B227819789142E7D161785A78914296
:10A73000E3D1A1789A789142DFD1E178DA78914239
:10A74000DBD121791A799142D7D161795A79914235
:10A75000D3D1A2799B799A42CFD1E379981B18BFC4
:10A760000120800070BD00BF880400209C040020F0
:10A7700041542B5400000020A0F13003022B01D9DA
:10A780000420704770B506462D4C2E4D4FF4A07333
:10A7900001222146286803F00BF90328F6D144F280
:10A7A0004F4E4FF0450C284B0822236024494FF4AC
:10A7B000A0732868E671A4F804E084F806C003F0EA
:10A7C00055F8012805D0821ED2B2012A03D80220F2
:10A7D00070BD042070BD0028FAD14FF4A073082288
:10A7E0002868174903F0E4F80128F2D0821ED2B29B
:10A7F000012AECD90028EBD1144B22781978914228
:10A80000E7D161785A789142E3D1A1789A78914260
:10A81000DFD1E178DA789142DBD121791A7991425E
:10A82000D7D161795A799142D3D1A2799B799A4251
:10A83000CFD1E079801B18BF0120800070BD00BF20
:10A84000880400209C04002041542B4D000000206F
:10A8500070B52C4D2C4C4FF4A07301222946206872
:10A8600003F0A6F80328F6D145F241464FF4A07351
:10A870000222244920682E8002F0F8FF431EDBB23A
:10A88000022B02D80026304670BD0028FAD14FF4C2
:10A89000A07302221B49206803F08AF8431EDBB232
:10A8A000022B0646EED90028ECD12B784F2BE9D1AC
:10A8B0006B784B2BE6D14FF4A07305222068134927
:10A8C00003F076F80128DED0831EDBB2012B01D81D
:10A8D0000126D8E700B280B9AB782B2BD2D1EB7828
:10A8E0004C2BCFD12B794F2BCCD16B79532BC9D19A
:10A8F000AB79542BC6D10226C5E7831E5E425E416A
:10A90000C1E700BF880400209C0400208A040020C6
:10A910008C4608B586461346074A7146106862465B
:10A9200002F0A4FF012805D0831EDBB2012B98BFE3
:10A93000022008BD042008BD9C0400208C4608B5F8
:10A9400086461346074A71461068624603F030F89F
:10A95000012805D0831EDBB2012B98BF022008BD61
:10A96000042008BD9C04002038B592490446FEF737
:10A9700055FB50BB20469049FEF746FB28BB2046BE
:10A980000021FEF755FBA0B18C492046FEF748FA9E
:10A99000FEF758FBC0B209281BD8DFE810F0C3004F
:10A9A000C700CB00CF00D300D700DB00DF001700CB
:10A9B000E30020460021FEF713FB00283DD04FF0B6
:10A9C000807130227E4B19609A8038BD38237C4DCF
:10A9D0002B8000EB80004000FEF71AF9014620466C
:10A9E000FEF760F80446FEF72DFBC0B209280FD829
:10A9F000DFE810F0BC00C100C6007F0084008900C1
:10AA00008E007A000A0093004FF484736C4D6B80C3
:10AA1000FEF7FEF801462046FEF744F86749FEF7C8
:10AA20004BF9FEF70FFBC0B20928CED8DFE800F0E3
:10AA3000383C4044484C505458342D23604D04F168
:10AA4000004420462B80FEF7FDFAC0B209280ED83C
:10AA5000DFE810F0A3009B009F00AB00B800BC0033
:10AA6000C000C4000A00A7004FF484736B80FEF797
:10AA7000CFF801462046FEF715F85049FEF71CF9BD
:10AA8000FEF7E0FAC0B209289FD8DFE800F00A0E0E
:10AA900012161A1E22262A06494D3923AB8038BDCC
:10AAA000474D3023AB8038BD454D3123AB8038BD99
:10AAB000434D3223AB8038BD414D3323AB8038BD8D
:10AAC0003F4D3423AB8038BD3D4D3523AB8038BD81
:10AAD0003B4D3623AB8038BD394D3723AB8038BD75
:10AAE000374D3823AB8038BD40F20713344D6B80AF
:10AAF0008EE740F20313324D6B8089E74FF4827387
:10AB00002F4D6B8084E740F205132D4D6B807FE75E
:10AB10004FF483732A4D6B807AE740F20913284D76
:10AB20006B8075E70023264D2B8052E73123244D9F
:10AB30002B804EE73223224D2B804AE73323204DD2
:10AB40002B8046E734231E4D2B8042E735231C4DD6
:10AB50002B803EE736231A4D2B803AE73723184DDA
:10AB60002B8036E73923164D2B8032E74FF4807364
:10AB7000134D6B804CE740F20113114D6B8047E79A
:10AB80004FF481730E4D6B8042E740F201136B80EE
:10AB90006DE74FF481736B8069E74FF480736B80CE
:10ABA00065E740F209136B8061E740F203136B80A5
:10ABB0005DE700BF0000C842000020C10000204146
:10ABC000BC0400204FF482736B8050E740F2051301
:10ABD0006B804CE74FF483736B8048E740F20713B8
:10ABE0006B8044E7000000002DE9F04101220024C1
:10ABF000072384B02C4801A9CDE90142039301F059
:10AC0000C9F9D0B1294D2A4CDFF8A8802A4F2B4E24
:10AC10003023C4E9007626486B60C5F80080FEF753
:10AC20001FFB4FF4FA6000F0D3FF2048FEF718FB3B
:10AC30004FF4FA6000F0CCFFEAE71B4801F088FA15
:10AC40000028DFD16421184801F0D2F80028D9D1BA
:10AC5000154801F09BF9FDF7D7FF0346184C124841
:10AC6000236001F087F80028CCD120681549FEF751
:10AC700023F8FDF7D1FB08A3D3E90023FDF724FC5B
:10AC800007A3D3E90023FDF749FDFDF7B7FE2060D8
:10AC900004B0BDE8F08100BF6666666666660A407D
:10ACA0000000000000FEAF402C090020A804002096
:10ACB000BC040020310001014500720072003D001B
:10ACC000B004002000007A44012307222DE9F0415E
:10ACD00084B02D4801A9CDE90133039201F05AF95E
:10ACE000D0B12A4D2A4CDFF8AC802B4F2B4E3023AD
:10ACF000C4E9007626486B60C5F80080FEF7B0FA1C
:10AD00004FF4FA6000F064FF2048FEF7A9FA4FF410
:10AD1000FA6000F05DFFEAE71B4801F019FA00282D
:10AD2000DFD16421184801F063F80028D9D1164812
:10AD300001F02CF9FDF768FF0346194C1248236017
:10AD400001F018F80028CCD120681649FDF7B4FFAF
:10AD5000FDF762FB08A3D3E90023FDF7B5FB08A3C9
:10AD6000D3E90023FDF7DAFCFDF748FE206004B0CC
:10AD7000BDE8F081AFF300806666666666660A40ED
:10AD80000000000000FEAF402C090020A8040020B5
:10AD9000BC040020310002014500720072003D0039
:10ADA000B404002000007A4430B595B02022002180
:10ADB0000CA803F0ADF8012400234FF480350AA855
:10ADC000CDE90A45CDE90633CDE90833CDE90233B3
:10ADD00005930193049301F007FD08B172B6FEE7F5
:10ADE00001460F220123902405A8CDE90811CDE9E1
:10ADF0000523079401F0E8FE08B172B6FEE70222CF
:10AE00004FF4404301A80192039301F0BFFF08B142
:10AE100072B6FEE715B030BD00242DE9804895B02C
:10AE200000F0B2FEFFF7C0FFCDE90D44CDE90F44BD
:10AE3000914B01269A694FF4005142F010029A6139
:10AE40009A698E4802F010020392039A9A690225C9
:10AE500042F020029A619A6902F020020492049A58
:10AE60009A6942F004029A619A6902F0040205921A
:10AE7000059A9A6942F008029A619B69224603F09A
:10AE800008030693069B01F0ABFC22464FF4967133
:10AE90007B4801F0A5FC224648F2E311794801F015
:10AEA0009FFC32464FF4E441764801F099FC4FF4A0
:10AEB000005372480DA90D93CDE90E64109501F071
:10AEC0007BFB4FF480436D480DA90D93CDE90E45F2
:10AED00001F072FB4FF4004368480DA90D93CDE9D2
:10AEE0000E4401F069FB4FF4967365480DA90D936C
:10AEF000CDE90E64109501F05FFB4FF2E33361483A
:10AF00000DA90D93CDE90F450E9601F055FB4FF4B9
:10AF10001E435B480DA90D93CDE90E4501F04CFB96
:10AF20000C234FF4165258484361584BC0E9024471
:10AF3000C0E9064404614260036002F029FC08B1E4
:10AF400072B6FEE74FF0804240F29F13504CCDE9BD
:10AF50000D00CDE90F00C4E9010009902061A06156
:10AF60000A9020462260E36001F0FAFF08B172B651
:10AF7000FEE74FF4805620460DA90D9602F070FAB8
:10AF8000034608B172B6FEE7204609A9CDE90933A8
:10AF900002F0C8FBE0B940F219723E4D3E4BCDE9DC
:10AFA0000900CDE90B00CDE90D00CDE90F00CDE999
:10AFB0001100C5E901000790139008902861A8616D
:10AFC0002846EA602B6001F0CBFF18B172B6FEE7AD
:10AFD00072B6FEE7284609A9099602F041FA08B1BF
:10AFE00072B6FEE7284602F071F8034608B172B661
:10AFF000FEE7284607A9CDE9073302F093FB024696
:10B0000008B172B6FEE76023CDE90E0011900DA9DC
:10B0100028460D9302F024F908B172B6FEE7042227
:10B0200028460DA902F01CF908B172B6FEE71948CE
:10B0300000F0CCFC194C1A4A0023226001264FF480
:10B0400060222046CDE90D330F93A360237323754F
:10B050006360E261266100F0CDFD034608B172B67F
:10B06000FEE70D93072320460DA90E960F9300F0DF
:10B0700091FFB8B172B6FEE7001002400010014027
:10B0800000080140000C0140EC090020004800408D
:10B090005C090020A4090020000400402C090020C5
:10B0A00000240140B949BA4BBA4ADFF8ECE2C1E9E1
:10B0B0000032BA4A8B618A60B94A4B62CA60B94AA7
:10B0C0000B630A61B84ACB634A61B84AB84BCA619C
:10B0D000B84A0B640A62B84AB84BC1E90AE2DFF821
:10B0E000E082B84A4B64C1E90D8204230622B648C7
:10B0F000FEF796F8B54CB64B2046C4E90033FEF790
:10B10000AFF8032600F05EFD002300F5FA7702E0B9
:10B1100000F058FD03469F42FAD8FEF70DFFE8B154
:10B12000013E16F0FF06EDD1AA4DDFF8AC82AB4F21
:10B13000AB4E3023C4E900766B60C5F80080A348AD
:10B14000FEF78EF84FF4FA6000F042FDA148FEF7DA
:10B1500087F84FF4FA6000F03BFDEAE7DFF88482FD
:10B16000A14F4046FEF752FF4FF480429F4B012013
:10B170009A809F4A9F49009242461F60FEF706FC54
:10B180000646D0B1934DDFF85482954F8F4E4FF065
:10B19000837C30233046C5E900C3C4E90087FEF74D
:10B1A0005FF84FF4FA6000F013FD8A48FEF758F894
:10B1B0004FF4FA6000F00CFDE9E7D8F808104B1ED8
:10B1C00003331AD9834DDFF81482854F7F4E302325
:10B1D0004FF08470C4E90087C5E900033046FEF7EC
:10B1E0003FF84FF4FA6000F0F3FC7A48FEF738F8C5
:10B1F0004FF4FA6000F0ECFCE9E7D8F80C300133CA
:10B2000021D07D48FEF74CFED8F80C30984235D05E
:10B21000704DDFF8C881724F6C4E4FF0847230234E
:10B220003046C5E90023C4E90087FEF719F84FF45A
:10B23000FA6000F0CDFC6748FEF712F84FF4FA60B0
:10B2400000F0C6FCE9E7634DDFF89081644F5F4E84
:10B250004FF0847130233046C5E90013C4E90087FC
:10B26000FDF7FEFF4FF4FA6000F0B2FC5948FDF71D
:10B27000F7FF4FF4FA6000F0ABFCE9E731465F48B6
:10B2800001F092FF04215D4801F08EFF2B68DFF88A
:10B2900070A15E639E63424E4FF40071304601F030
:10B2A00099FA78B34FF48061304601F093FA0028A0
:10B2B00000F061814FF40061304601F08BFA012803
:10B2C00000F053814FF48051304601F083FA012899
:10B2D00042D04FF40041304601F07CFA01282BD1D6
:10B2E000484B1878642832D0FDF78EFCFFF73CFB02
:10B2F0004423E3803548FDF7B3FF4FF47A7000F044
:10B3000067FCC9E7334DDFF80081344F344E3023FA
:10B31000C4E900766B60C5F800802C48FDF7A0FFFB
:10B320004FF4FA6000F054FC2A48FDF799FF4FF4FF
:10B33000FA6000F04DFCEAE74FF40041384601F0B6
:10B3400049FA01286CD1314B18786428CCD13023CC
:10B35000A3802F4B2360CBE74FF0300B2D4BDFF852
:10B36000B8901A48C4E90093FDF77AFF4FF4FA70D9
:10B3700000F02EFC294B1548C4E9003BFDF770FF97
:10B380004FF4FA7000F024FC86E700BFC4040020EC
:10B39000000C01400100000C8000000C0140020084
:10B3A0000008014004000008014008002000000CD3
:10B3B0000020000C0140400001400001014000401D
:10B3C0000002000C014000105C090020BC040020B9
:10B3D00008010801A80400200000050145007200D2
:10B3E00072003D001409002000100140A00400205C
:10B3F0000C050020EC09002000800008A4090020B2
:10B40000B804002009000020000009010700002006
:10B410003100300056003D004100460000000101AF
:10B42000FFF7E2FB4FF00408FFF74EFC0123CDE9E4
:10B430000D830723C2480DA90F9300F0ABFD98B907
:10B44000BF4800F085FE78B96421BD4800F0D0FC0B
:10B4500050B9BB4800F09AFDFDF7D6FBCAF80000D2
:10B46000B74800F087FCC8B1B64DDFF8DC82B74FB3
:10B47000B74E3023C4E900766B60C5F80080B5484C
:10B48000FDF7EEFE4FF4FA6000F0A2FBAD48FDF7C9
:10B49000E7FE4FF4FA6000F09BFBEAE7AE49DAF80A
:10B4A0000000FDF709FCFCF7B7FFA1A3D3E90023D7
:10B4B000FDF70AF8A0A3D3E90023FDF72FF9FDF764
:10B4C0009DFACAF80000FCF7A7FFA44B804693F949
:10B4D00000008946FDF79CFBFCF79EFF0022A04B75
:10B4E000FCF73AFE02460B4640464946FDF772FA23
:10B4F0000246002800F09E804FF0000B2B685A4651
:10B50000C3F838B04FF40041964801F069F9DAF811
:10B510000000FCF781FF914B804693F900008946BB
:10B52000FDF776FBFCF778FF00228D4BFCF716FE4B
:10B5300002460B4640464946FDF742FA0246A0B392
:10B540002B685A4630464FF48071C3F834B001F08E
:10B5500047F901224FF40051384601F041F9DAF879
:10B560000000FFF701FA4323C3E67C4B93F9000088
:10B57000FDF74EFBF5E7734DDFF8EC81734F744E2A
:10B580003023C4E900766B60C5F800807148FDF790
:10B5900067FE4FF4FA6000F01BFB6A48FDF760FE9F
:10B5A0004FF4FA6000F014FBEAE74FF4005138461C
:10B5B00001F016F9DFF8B4B1DFF8B491DFF8948147
:10B5C0006C4B1878FDF720FB6B4B1968FDF712FDEB
:10B5D000002850D04046C4E900B9FDF741FE4FF4C1
:10B5E000FA7000F0F5FA654B6548C4E9000340467F
:10B5F000FDF736FE4FF4FA7000F0EAFADFF884C186
:10B60000524B4046C4E900C3FDF72AFE4FF4FA70DE
:10B6100000F0DEFA4FF4381E4FF02E134046C4E916
:10B6200000E3FDF71DFE4FF4FA7000F0D1FAFFF7CA
:10B63000DBFAC5E74FF40051384601F0D1F8524B20
:10B640001878FDF7E1FA514B1968FDF7DDFC28B3D6
:10B650004F4B40F21A721B784FF40041642B28BF05
:10B66000642302FB03F36422B3FBF2F32A683D4830
:10B670009363012271E7474B40F21A721B784FF433
:10B680008071642B28BF642302FB03F36422B3FBA5
:10B69000F2F32A683046536301225EE7012220213B
:10B6A000304601F09DF8DFF8F0B0DFF8D890DFF811
:10B6B000A4803A4B1878FDF7A7FA344B1968FDF7C8
:10B6C000B7FC024678B34046C4E900B9FDF7C8FDAF
:10B6D0004FF4FA7000F07CFA4FF49002304B404681
:10B6E000C4E90023FDF7BCFD4FF4FA7000F070FAD6
:10B6F000164B40466360C4F80090FDF7B1FD4FF46F
:10B70000FA7000F065FA4FF438114FF02E134046EE
:10B71000C4E90013FDF7A4FD4FF4FA7000F058FAE5
:10B72000FFF7D2FAC5E72021304616E7AFF30080D5
:10B730006666666666660A400000000000FEAF406E
:10B740002C090020A80400203100030145007200EC
:10B7500072003D00BC04002000007A440C00002070
:10B760000000E03F000C0140310000016E00450088
:10B770004500640008000020B00400206C00640054
:10B7800043006F00410074000A000020B404002050
:10B790000900002007000020480045000B000020A1
:10B7A0006F007400FDF756BDF8B50446FDF74CFD7B
:10B7B000042C54D8DFE804F03E2B2A363A00354BEF
:10B7C000C0E90023FDF74CFDA17A637A227A0B448D
:10B7D000403B3149DBB22A3A642B0A7037D82F4AF2
:10B7E0001370E37A227B1344403BDBB2642B32D8E4
:10B7F0002B4A13702B4A94F80DC0E37B82F800C0EB
:10B800002949A07B294A2A3B08701370F8BD284BB0
:10B810002848294AC0E90023FDF722FDBDE8F84089
:10B82000FEF71CB9BDE8F84000F056BDBDE8F84091
:10B83000FEF714B9214C1F4823681F4A082BBED0BD
:10B840001F4BC0E90023BDE8F840FDF709BD6422A5
:10B85000124B1A70C5E76422114B1A70CAE7154CD7
:10B86000184D194F194E4FF0827330222046C4E90B
:10B870000076C5E90032FDF7F3FC4FF4FA6000F002
:10B88000A7F91048FDF7ECFC4FF4FA6000F0A0F9BE
:10B89000E9E700BF200044000C0000200900002060
:10B8A000070000200B0000200A00002008000020F4
:10B8B00020005100BC04002045004F000C05002072
:10B8C00020004900A80400204500720072003D00DD
:10B8D0000A4B82B09A6942F001029A619A6902F0B9
:10B8E00001020092009ADA6942F08052DA61DB6963
:10B8F00003F080530193019B02B070470010024097
:10B90000002330B5154A016887B09142CDE9023372
:10B91000CDE9043301D007B030BD1324032503F172
:10B92000804303F504339A690D4842F400729A612A
:10B930009A6902A902F400720092009A9A6942F090
:10B9400004029A619B69CDE9024503F00403019367
:10B95000019B00F031FE07B030BD00BF0024014064
:10B960000008014000B5036883B0B3F1804F12D0E6
:10B97000144A934202D003B05DF804FB124BDA691B
:10B9800042F00202DA61DB6903F002030193019BDA
:10B9900003B05DF804FB002203F50433D9691C20D1
:10B9A00041F00101D961DB69114603F00103009305
:10B9B000009B00F045FC1C2003B05DF804EB00F098
:10B9C0007DBC00BF0004004000100240002370B5A1
:10B9D000114A016886B09142CDE90233CDE90433C2
:10B9E00001D006B070BDC0240225022603F18043B9
:10B9F00003F504339A69094842F004029A619B698D
:10BA000002A903F004030193CDE90245019B0596C9
:10BA100000F0D2FD06B070BD0004004000080140F7
:10BA2000D0B500241E4B026886B09A42CDE902448C
:10BA3000CDE9044401D006B0D0BD03F5E433DA69A2
:10BA40004FF4806642F48022DA61DA69022702F458
:10BA500080220092009A9A6902A942F008029A6133
:10BA60009B69104803F0080301930323019A05938F
:10BA7000CDE9026700F0A0FD00234FF4006202A9A7
:10BA80000848CDE90223049400F096FD22462146A1
:10BA9000272000F0D5FB272000F010FC06B0D0BD19
:10BAA00000480040000C0140FEE700BFFEE700BF79
:10BAB000FEE700BFFEE700BFFEE700BF704700BF24
:10BAC000704700BF704700BF00F070B8014801F038
:10BAD0007FBD00BF5C090020014802F08BB800BFA9
:10BAE000EC090020014B024A9A60704700ED00E02B
:10BAF00000800008FFF7F6FF0B480C490C4A0023B2
:10BB000002E0D458C4500433C4188C42F9D3094A13
:10BB1000094C002301E013600432A242FBD302F07F
:10BB2000FFF9FFF779F97047000000201C000020A2
:10BB3000DCE3000820000020580A0020FEE7000097
:10BB400038B54FF47A730D4A054611780C4AB3FBA9
:10BB5000F1F31268B2FBF3F000F0D0FB08B90F2D3F
:10BB600001D9012038BD0446024629464FF0FF3076
:10BB700000F066FB034B20461D6038BD140000201A
:10BB80001000002018000020074A08B513680320A1
:10BB900043F01003136000F041FB0F20FFF7D0FFCC
:10BBA000FFF796FE002008BD00200240034A044B28
:10BBB00011681B780B441360704700BF340A0020E3
:10BBC00014000020014B1868704700BF340A0020A1
:10BBD00038B50446FFF7F6FF631C054602D0044B58
:10BBE0001B781C44FFF7EEFF401BA042FAD338BD80
:10BBF00014000020002800F08B8038B5836A0446CA
:10BC0000002B6DD023689A68D10742D4A26AD2066D
:10BC100060D4A26A6168E06922F48852257B22F030
:10BC20000202014342F00202A26241EA4502A16817
:10BC3000B1F5807F5AD0A1F10100B0FA80F094F8FC
:10BC400014C04009BCF1010F4FEA00206CD05D68C0
:10BC500025F46945284358609D68444828401043AE
:10BC60009860012950D00020D96A21F47001014365
:10BC7000D96299683E4B0B409A424BD00120A36A8F
:10BC800023F0120343F01003A362E36A0343E36269
:10BC900038BD9A6822F001029A60FFF793FF23688B
:10BCA00005469A68D207B1D502E09A68D107ADD5AA
:10BCB000FFF788FF401B02282368F6D99A68D0074F
:10BCC000F3D5A36A43F01003A362E36A43F00103D0
:10BCD000E362A36AA36A012043F01003A36238BDA4
:10BCE000C36280F82430FFF70BFE8BE7207D01282C
:10BCF00019D058681D4920F4694040F4807058609C
:10BD00009868014011439960206901380005ABE74C
:10BD1000012070470020E062A36A23F0030343F090
:10BD20000103A36238BD0846C5B1A56A45F02005E8
:10BD3000A562E56A45F00105E5625D68B1F5807FC1
:10BD400025F4694540EA050058609D68074800EA07
:10BD5000050040EA0200986083D1D5E7A569013D5E
:10BD600040EA453040F40060E7E700BFFDF7E1FF3F
:10BD7000FE0E1FFF38B590F82430012B35D001227C
:10BD8000036880F824209A680446D0070CD4002069
:10BD9000A36A23F4885323F0010343F00103A36251
:10BDA000002384F8243038BD9A6822F001029A609A
:10BDB000FFF708FF236805469B68D907E7D502E02F
:10BDC0009B68DB07E3D5FFF7FDFE431B022B2368CF
:10BDD000F6D99A68D207F3D50120A36A43F010037D
:10BDE000A362E36A0343E362DAE7022038BD00BFDF
:10BDF0002DE9F0410546002482B00E460194FFF77C
:10BE0000E1FE2B689A68D7056ED45A680746D105BB
:10BE10001AD4DA6A12F4700F16D1721C6ED11A6835
:10BE20009407FCD56FF012021A60AA6A42F40072FD
:10BE3000AA629B6803F46023B3F5602F00F08A8048
:10BE4000002002B0BDE8F0814C4B0220D3F8008006
:10BE500001F01EF82A684A49146913460C42B8FBDF
:10BE6000F0F810D1D06801F15C4108420BD11069A3
:10BE7000444908427FD1D06801F16E41084214BFA5
:10BE80002921142109E010693E49084222D1D068D5
:10BE900001F16E4108421DD1542101FB08F80199BE
:10BEA0008845BFD9711C32D036B138E0019B0133CF
:10BEB0000193019B434530D2019B4345F6D20022BA
:10BEC0000320AB6A85F8242043F00403AB6202B080
:10BED000BDE8F08110692C49084231D1D068084290
:10BEE00014BFFC215421D8E70120AB6A85F8244017
:10BEF00043F02003AB6202B0BDE8F0811A689007FE
:10BF000090D4FEB91A6812F0020286D1D8E7019BDC
:10BF100001330193019B9845F9D8134682E7FFF757
:10BF200051FEC31B9E4202D2019B9845C7D8019B7C
:10BF300001330193019B9845F1D82A68134671E7B4
:10BF4000FC21AAE7FFF73EFEC31BB3422B687FF636
:10BF500064AFD7E7287B00287FF472AFAB6A23F485
:10BF60008073AB62AB6ADB043FF56AAFAB6A43F048
:10BF70000103AB6265E729218FE700BF10000020B5
:10BF80002449922492244912499224000368D86CCF
:10BF9000704700BF002330B583B0019390F8243080
:10BFA000012B74D0012380F824304B680246062B05
:10BFB000046832D90C2B03EB83034ED84FF01F0CCF
:10BFC0000868256B233B00FA03FE0CFA03F325EA0D
:10BFD000030343EA0E032363092830D94FF0070C0B
:10BFE0008D6800EB4001E3681E398D400CFA01F1C9
:10BFF00023EA0103A0F110012B430129E36044D897
:10C000002E4B9C4238D00120936A43F02003936268
:10C01000002382F8243003B030BD4FF01F0C0868B5
:10C0200003EB8303656B053B00FA03FE0CFA03F395
:10C0300025EA030343EA0E0309286363CED80725E4
:10C040008968236900EB4000814005FA00F023EA8B
:10C0500000030B4300202361DAE74FF01F0C086850
:10C06000E56A413B00FA03FE0CFA03F325EA0303F9
:10C0700043EA0E03E362AFE7A3681B0205D4A3689B
:10C08000102843F40003A36004D00020C0E702207E
:10C0900003B030BD0A4B0B491B68A1FB03139B0C7B
:10C0A00003EB83035B000193019B002BEDD0019B0D
:10C0B000013B0193019B002BF9D1E6E700240140ED
:10C0C0001000002083DE1B43002330B5026883B0DC
:10C0D00001939368D90727D41B4B04461B681B4860
:10C0E0009168A0FB030341F001019B0C9160019357
:10C0F000019B2BB1019B013B0193019B002BF9D1CB
:10C10000FFF760FD236805469B68DA070CD4FFF74C
:10C1100059FD431B022B236803D99A6812F00102D0
:10C1200005D09B68DB07F2D5002003B030BD0120AD
:10C13000A36A84F8242043F01003A362E36A034354
:10C14000E36203B030BD00BF1000002083DE1B435C
:10C1500090F82430012B38D0012310B580F824301A
:10C160000446FFF7B1FF60BBA36A2268294923F4A4
:10C17000407323F0010343F480738A42A36226D004
:10C18000A36A23F48013A362536859052BD4A36ACE
:10C19000002113F4805318BFE36A84F8241018BFF9
:10C1A00023F00603E3626FF002031360936803F465
:10C1B0006023B3F5602F1DD0936843F48013936020
:10C1C00010BD002384F8243010BD02207047124BAC
:10C1D000596811F4702FD3D0A16A41F48011A16283
:10C1E0005B685B05D3D5A36A23F4405343F48053C3
:10C1F000A362CCE7074B9A4204D0936843F4A003B0
:10C20000936010BDA3F580635B6813F4702FD3D1E6
:10C21000F3E700BF00280140002401404FF6FF0C67
:10C2200006490302CA6803F4E06302EA0C021343FE
:10C2300043F0BF6343F40033CB60704700ED00E090
:10C240001C4B00B5DB68C3F30223C3F1070EBEF13C
:10C25000040F03F1040C28BF4FF0040EBCF1060FCD
:10C260001BD94FF0FF3C033B0CFA03FC22EA0C0203
:10C270004FF0FF3C0CFA0EFC21EA0C01994000281B
:10C2800041EA02010CDB090100F16040C9B200F58E
:10C29000614080F800135DF804FB00221346E7E7D5
:10C2A000054B00F00F000901C9B2034419765DF88F
:10C2B00004FB00BF00ED00E0FCEC00E0002807DB21
:10C2C000012300F01F01034A40098B4042F820304F
:10C2D000704700BF00E100E0BFF34F8F0549064BF8
:10C2E000CA6802F4E0621343CB60BFF34F8F00BF14
:10C2F000FDE700BF00ED00E00400FA050138B0F1F1
:10C30000807F0FD24FF0E0234FF0F00C0022072186
:10C3100010B4054C586184F823C010469A6110BCD3
:10C32000196170470120704700ED00E090F821206E
:10C330000346022A06D004229A630022012083F8D1
:10C34000202070474FF0010C1A680020116821F07E
:10C350000E011160116821F001011160D3E90F1283
:10C360000CFA02F24A60002283F821C083F82020F0
:10C37000704700BF90F821200346022A03D0042210
:10C3800001209A637047026810B511681C4821F0BB
:10C390000E0111601168824221F00101116024D068
:10C3A00018498A421DD014318A4220D014318A4261
:10C3B00020D014318A4220D014318A420CBF4FF46D
:10C3C00080124FF08072012100240F4842605A6BA6
:10C3D00083F8211083F820402AB118469047204660
:10C3E00010BD1022EFE7104610BD0122EBE74FF41D
:10C3F0008072E8E74FF48052E5E74FF48032E2E7DD
:10C40000080002401C00024000000240064B186970
:10C4100010F0800006D00549054A59605A60186935
:10C42000C0F3C010704700BF0020024023016745E1
:10C43000AB89EFCD034A0020136943F080031361F9
:10C44000704700BF0020024070B50446FFF7BAFBFA
:10C450000546264E601C36D1244AD368D907FCD441
:10C46000224BDA68960644BF2022DA601F4BDA6856
:10C47000D50607D4DA69D40704D4D86810F00400CC
:10C4800000D170BD194BDB6813F0100326D10421D5
:10C49000164AD268500705D50B461549CA6942F0BD
:10C4A0000102CA61114AD169C90708D51048C1699A
:10C4B00041F00401C161D16921F00101D1610B4A50
:10C4C0000120D36070BDF368DB07C9D524B1FFF745
:10C4D00079FB401BA042BDD9032070BD0448142144
:10C4E000C269102342F00202C261D1E7002002407B
:10C4F000380A00202DE9F8432D4E337E012B54D00D
:10C500000123337603688146022B31D04CF2503040
:10C510008846FFF799FF074678BB4FF0FF33C8F80E
:10C520000030D9E9025305EB83239D4225D2214CEB
:10C5300007E005F58065D9E9023203EB8223AB42BF
:10C540001CD9F76123694CF2503043F00203236198
:10C550006561236943F040032361FFF775FF236999
:10C5600023F0020323610028E3D0C8F8005005E05F
:10C570004CF25030FFF768FF20B1012000233376E2
:10C58000BDE8F8830B4CF06123694CF2503043F066
:10C5900004032361236943F040032361FFF754FF41
:10C5A000236923F004032361E8E70220BDE8F88350
:10C5B000380A0020002002402DE9F04F0E6883B0B9
:10C5C000002E00F0B58000227A4F924613467A4D35
:10C5D000DFF8E88106E0013336FA03F402F10402E1
:10C5E00000F0A68001249C4034EA060E04EA060C02
:10C5F000F1D14E68122E00F29E80122E1AD8DFE87A
:10C6000006F0A7B9B5CE1919191919191919191957
:10C61000191919B1BC00DFF8A8E1764500F098803F
:10C620000EF5702E764500F09380AEF5801E7645AF
:10C6300000F08E80BCF1FF0F9CBF864693464FF002
:10C640000F0684BF00F1040EA2F1200BDEF80040BB
:10C650000AFA0BF906FA0BFB24EA0B0444EA090474
:10C66000CEF800404C6814F0805F79D0D7F818E01D
:10C6700003F003094EF0010EC7F818E0D7F818E0F0
:10C680004FEA89090EF0010ECDF804E0DDF804E070
:10C6900023F0030E0EF1804E0EF5803EDEF808B05A
:10C6A00006FA09F62BEA0606DFF818B1584513D04A
:10C6B0000BF5806B58456BD0DFF80CB1584560D056
:10C6C000DFF808B158450CBF4FF0030B4FF0040BD7
:10C6D0000BFA09F946EA0906CEF80860AE6814F4C8
:10C6E000801F14BF46EA0C0626EA0C06AE60EE6810
:10C6F00014F4001F14BF46EA0C0626EA0C06EE608E
:10C700006E6814F4003F14BF46EA0C0626EA0C06D5
:10C710006E6014F4803F2C681FD044EA0C042C6037
:10C720000E68013336FA03F402F104027FF45AAFC3
:10C7300003B0BDE8F08F46450AD07FF66CAFDFF856
:10C7400090E0764504D00EF5803E76457FF472AFDA
:10C750008E683EBB4FF0040A6CE724EA0C042C60A0
:10C760000E6838E7CC6804F1040A63E7CC6804F18A
:10C77000080A5FE7D1F80CA05CE7CC6804F10C0A6A
:10C7800058E74FF0020B0BFA09F946EA0906A3E74E
:10C790004FF0010B0BFA09F946EA09069CE74FF046
:10C7A000000A47E7012E4FF0080A0CBF04614461FC
:10C7B00040E700BF001002400004014000002210CA
:10C7C0000000121000080140001001400014014058
:10C7D000000031108368194214BF01200020704707
:10C7E00002B9090401617047002800F0B6812DE903
:10C7F000F04103680446DD0782B035D59A494A689E
:10C8000002F00C02042A00F0EF804A6802F00C02E9
:10C81000082A00F0E5806368B3F5803F10D0002B54
:10C8200000F00C81B3F5A02F00F082818E4B1A68C6
:10C8300022F480321A601A6822F480221A6004E01E
:10C84000894A136843F480331360FFF7BBF9864EBF
:10C85000054605E0FFF7B6F9401B642800F2EA80C0
:10C8600033689A03F6D523689F0728D57E4A516816
:10C8700011F00C0F00F08D80516801F00C010829B7
:10C8800000F083802369002B00F018810122774B90
:10C89000754E1A60FFF796F9054605E0FFF792F925
:10C8A000401B022800F2C68033689807F6D533682B
:10C8B000626923F0F80343EAC203336023681A076E
:10C8C0001FD45D0742D5684BDA69D0007DD50025BD
:10C8D000674E3368D90540F19D80E368012B00F075
:10C8E000FE80002B00F0CA80052B5F4B1A6A00F017
:10C8F0002C8122F001021A621A6A22F004021A62E2
:10C90000F2E0A369002B4FD00122584B564EC3F8DA
:10C910008024FFF757F9054605E0FFF753F9401B60
:10C92000022800F28780736A9B07F6D5514B524A62
:10C930001B68A2FB03235B0A019300BF019B5A1EE5
:10C940000192002BF9D123685D07BCD4E069C0B126
:10C95000454D6B6803F00C03082B00F0D8800022D3
:10C96000424B02281A6600F0FA80FFF72BF90446C2
:10C9700004E0FFF727F9001B02285BD82B689B0116
:10C98000F7D4002002B0BDE8F0815268D6033FF52D
:10C9900079AF354A1268950730D52269012A2DD022
:10C9A000012002B0BDE8F081304A2F4EC2F8803439
:10C9B000FFF708F9054604E0FFF704F9401B0228D9
:10C9C00038D8736A9F07F7D4BDE7DA69012542F0CA
:10C9D0008052DA61DB6903F080530093009B77E7B4
:10C9E0004A68D0037FF517AF1F4A126891037FF59D
:10C9F0003BAF6268002A7FF437AFD1E71A4960691C
:10CA00000A6822F0F80242EAC0020A601A077FF5BB
:10CA100058AF76E7336843F480733360FFF7D2F89A
:10CA200007463368DA053FF558AFFFF7CBF8C01B70
:10CA30006428F6D9032002B0BDE8F0810A4D2B68C6
:10CA400023F480332B602B6823F480232B60FFF7C3
:10CA5000B9F8064604E0FFF7B5F8801B6428E9D86A
:10CA60002B689B03F7D4FEE6001002400000424210
:10CA70000070004010000020D34D6210504E41F273
:10CA80008838336A23F001033362336A23F00403E6
:10CA90003362FFF797F8074604E0FFF793F8C01BEF
:10CAA0004045C7D8336A9807F7D4002D3FF44EAFFE
:10CAB000434AD36923F08053D36147E7414A404E4C
:10CAC0001360FFF77FF8054604E0FFF77BF8401B93
:10CAD0000228AFD833689907F7D42368EFE6384ABD
:10CAE000136A43F001031362FFF76CF841F28838D0
:10CAF0000646334F04E0FFF765F8801B404599D8A0
:10CB00003B6A9B07F7D5002D3FF420AFD0E7012803
:10CB10003FF438AF6B68226A03F4803191427FF4AE
:10CB20003FAF606A03F47013181A18BF012029E799
:10CB300003F18043A3F53C331A6842F480221A6063
:10CB40001A6842F480321A607FE642F004021A62E8
:10CB50001A6A42F001021A62C6E701207047FFF725
:10CB600031F8064605E0FFF72DF8801B02283FF656
:10CB700061AF2B689901F6D4236AB3F5803F05D1E4
:10CB80006A68A16822F400320A436A6001200C4DF1
:10CB9000616A6A680B4322F474120A4913436B609A
:10CBA0000866FFF70FF8044605E0FFF70BF8001BD7
:10CBB00002283FF63FAF2B689A01F6D5E1E600BFA9
:10CBC0000010024000004242002800F0A180564AB6
:10CBD0002DE9F0411368044603F007038B420D462C
:10CBE0000CD2136823F007030B431360136803F0A0
:10CBF00007038B4202D00120BDE8F08123689E0725
:10CC000014D5580704D549494A6842F4E0624A609D
:10CC1000190704D545494A6842F460524A604349BD
:10CC2000A0684A6822F0F00202434A60DA0720D581
:10CC300062683E4B012A1B686CD0022A65D09E07B1
:10CC4000D9D53A4E41F28838736823F00303134371
:10CC50007360FEF7B7FF074604E0FEF7B3FFC01BA3
:10CC600040455AD87368626803F00C03B3EB820F37
:10CC7000F3D12D4A136803F00703AB4209D91368B7
:10CC800023F007032B431360136803F00703AB4241
:10CC9000B1D12368580706D52449E0684A6822F4D0
:10CCA000E06202434A60190707D5204A21695368A8
:10CCB00023F4605343EAC10353601C494A6802F0FD
:10CCC0000C03082B10D01A4B184A1A4852681A49FC
:10CCD000C2F30312805C194AC34008681360FEF770
:10CCE0002FFF0020BDE8F0811548C2F38343D20333
:10CCF000C35C14D50E484A6800FB03F31149C2F324
:10CD000040428A5CB3FBF2F3DEE79F0199D472E7FD
:10CD1000012070479B0394D46DE703206CE70A4A17
:10CD200002FB03F3D0E700BF0020024000100240E6
:10CD300000127A0094E30008180000201000002080
:10CD4000ACE30008BCE3000800093D00044B054AC1
:10CD50005B680549C3F30223CB5C1068D840704779
:10CD60000010024010000020A4E30008044B054A14
:10CD70005B680549C3F3C223CB5C1068D840704799
:10CD80000010024010000020A4E300082DE9F0414B
:10CD90000446006882B0C1072CD53A4BDA69D2004C
:10CDA0003FD5394D00262B68DF0548D5354D2B6A18
:10CDB00013F4407311D0616801F440729A420DD0AF
:10CDC000012700202B6A314A23F44071C2F84074D5
:10CDD000C2F840042962D90744D46168294A136A19
:10CDE00023F440730B4313621EB1D36923F08053C5
:10CDF000D3612068830706D52249A3684A6822F4D4
:10CE000040421A434A6010F0100007D000201D4A2B
:10CE1000E168536823F480030B43536002B0BDE81C
:10CE2000F081DA69184D42F08052DA61DB6901263F
:10CE300003F080530193019B2B68DF05B6D42B6868
:10CE400043F480732B60FEF7BDFE07462B68D805C0
:10CE5000ACD4FEF7B7FEC31B642BF7D9032002B096
:10CE6000BDE8F081FEF7AEFE41F28838074604E0E7
:10CE7000FEF7A8FEC01B4045F0D82B6A9A07F7D5ED
:10CE8000ABE700BF001002400070004000004242CB
:10CE9000022808B505D0102826D001280CD0002083
:10CEA00008BDFFF763FF284B5B68C3F38133013391
:10CEB0005B00B0FBF3F008BD40F2023222490B6A7E
:10CEC0001A40B2F5817F2FD003F44073B3F5007F91
:10CED0002DD0B3F5407FE2D14FF22443086810F41F
:10CEE000003018BF184608BD174B5A68186810F074
:10CEF0008070D5D01548C2F38341D203405C1ED563
:10CF00005B68134AC3F34043D25C124BB3FBF2F3AA
:10CF100003FB00F00C4B5B685B02C1D40E4B40007E
:10CF2000A3FB0030400808BD4FF4004008BD49F69F
:10CF30004043486A10F0020018BF184608BD074B6E
:10CF400003FB00F0E6E700BF00100240C0E300086A
:10CF5000D0E3000800127A00ABAAAAAA00093D009B
:10CF6000002866D010B590F83D30044603F0FF026B
:10CF7000002B45D0022322682F4984F83D308A4295
:10CF8000136842D0B2F1804F11D0A1F594318A429A
:10CF90000DD001F580618A4209D0A06923F0800399
:10CFA0000343E16813606368D162936210E0A16893
:10CFB00023F0700320690B4323F44073A1690343FA
:10CFC00023F08003E0680B4361681360D0629162D4
:10CFD0000123536184F8463084F83E3084F83F30B2
:10CFE00084F8403084F8413084F8423084F843308B
:10CFF00084F8443084F8453084F83D30002010BD7A
:10D0000080F83C20FEF7AEFCB4E7A06823F0700384
:10D010002169034323F440730B43A16923F0800388
:10D020000B431360E368D3626368936263691363BD
:10D03000CEE70120704700BF002C014090F83D3042
:10D04000012B1FD10222036880F83D20DA680F49C6
:10D0500042F001028B42DA6009D0B3F1804F06D072
:10D060000B4A934203D002F58062934204D19A683E
:10D0700002F00702062A07D01A68002042F00102D7
:10D080001A6070470120704700207047002C014053
:10D090000004004041F2111C02680346D16821F0EF
:10D0A0000101D160116A11EA0C0F08D140F244412C
:10D0B000106A084203D1116821F0010111600122B8
:10D0C000002083F83D207047704700BF002866D0DD
:10D0D00010B590F83D30044603F0FF02002B45D018
:10D0E000022322682F4984F83D308A42136842D0D7
:10D0F000B2F1804F11D0A1F594318A420DD001F5E3
:10D1000080618A4209D0A06923F080030343E1686B
:10D1100013606368D162936210E0A16823F070032A
:10D1200020690B4323F44073A169034323F0800378
:10D13000E0680B4361681360D06291620123536120
:10D1400084F8463084F83E3084F83F3084F840302C
:10D1500084F8413084F8423084F8433084F8443015
:10D1600084F8453084F83D30002010BD80F83C2024
:10D17000FFF7AAFFB4E7A06823F070032169034317
:10D1800023F440730B43A16923F080030B43136026
:10D19000E368D3626368936263691363CEE7012037
:10D1A000704700BF002C014039BB90F83E30012B86
:10D1B00037D1022380F83E300122036801F01F01BD
:10D1C000186A8A4020EA020010B41862196A224CD8
:10D1D0000A43A3421A6226D0B3F1804F27D01F4AD8
:10D1E000934224D002F58062934220D01A68002036
:10D1F00042F0010210BC1A60704704291FD00829B0
:10D200000BD090F84130012B0BD104291BD00829F9
:10D210001DD0022380F84130CEE790F84030012B3A
:10D2200015D0012070475A6C42F400425A649A6843
:10D2300002F00702062AD9D1002010BC704790F8EE
:10D240003F30012BEDD1022380F83F30B4E70223B9
:10D2500080F84030B0E700BF002C014000040040DF
:10D26000034690F83C00012800F0C5800120F0B48E
:10D2700083F83C000C2A08D8DFE802F03B070707D8
:10D2800065070707920707070D00002283F83C2077
:10D290000120F0BC70471A680E68106A146A20F406
:10D2A000005024F4805414625568D46924F4E64490
:10D2B00044EA06248E6840EA0630684EB24200F026
:10D2C000B88055604D68D4610C6915641062D169ED
:10D2D000002041F40061D161D16921F48061D16104
:10D2E000D16941EA0421D161002283F83C20F0BCDD
:10D2F00070471A680E68106A146A20F0020024F061
:10D30000010414625568946924F0730434438E68F0
:10D310003043524EB24270D055604D6894610C69F2
:10D32000556310629169002041F008019161916993
:10D3300021F004019161916921439161002283F8F8
:10D340003C20F0BC70471A680E68106A146A20F01E
:10D35000200024F0100414625568946924F4E64413
:10D3600044EA06248E6840EA06103C4EB24251D090
:10D3700055604D6894610C69956310629169002055
:10D3800041F400619161916921F480619161916939
:10D3900041EA04219161002283F83C20F0BC7047EF
:10D3A0001A680E68106A146A20F4007024F48074FD
:10D3B00014625568D46924F0730434438E6840EADB
:10D3C0000620264EB2423AD055604D68D4610C69B1
:10D3D000D5631062D169002041F00801D161D169A3
:10D3E00021F00401D161D1692143D161002283F888
:10D3F0003C20F0BC704702207047CE6820F0080047
:10D40000304325F44075D1E905673E4320F0040020
:10D41000354381E7CE6820F0800040EA061025F40D
:10D420004065D1E905673E4320F0400045EA8605A6
:10D430009EE74E6925F4804545EA861541E7CE68AA
:10D4400020F4006040EA062025F44055D1E9056744
:10D450003E4320F4806045EA0615B5E7002C014004
:10D4600090F83C30012B75D002460223012030B4E5
:10D47000146882F83C0082F83D30A36823F47F43AF
:10D4800023F07703A3600B68602B65D024D8402B72
:10D490007CD04BD9502B17D100204B68CD68216A26
:10D4A00021F00A011943236A23F001032362A369CF
:10D4B00023F0F00343EA0513A3612162A36823F07C
:10D4C000700343F05703A3600121002382F83D104D
:10D4D00082F83C3030BC7047B3F5805F38D0B3F58C
:10D4E000005F10D1D1E90153A0682B43CD6820F42F
:10D4F0007F4143EA05230B43A360A368002043F464
:10D500008043A360E0E7702BDED1D1E90153A0682E
:10D510002B43CD6820F47F4143EA05230B43A360EE
:10D52000A368002043F07703A360CDE7202B02D04F
:10D530000AD9302BC8D1A168002021F070010B431B
:10D5400043F00703A360BFE733F01001BCD1F2E75B
:10D550000020B9E702207047236A4868CD68216A35
:10D5600023F0A00321F010012162A16943EA001316
:10D5700021F4704141EA0531A1612362A3680020D2
:10D5800023F0700343F06703A3609DE74B68CD6809
:10D59000216A002021F00A011943236A23F00103C4
:10D5A0002362A36923F0F00343EA0513A361216218
:10D5B000A36823F0700343F04703A36084E700BF30
:10D5C000704700BF704700BF704700BF704700BF83
:10D5D000036810B51A690446910702D5DA68920704
:10D5E0005FD41A69500702D5DA68510746D41A6920
:10D5F000120702D5DA6810072ED41A69D20602D5AE
:10D60000DA68D00618D41A69D10702D5DA68D207C9
:10D610005DD41A69100602D5DA6811065FD41A695A
:10D62000520602D5DA68500661D41A69910602D50D
:10D63000DA68920643D410BD6FF010010822196118
:10D640002277DB69204613F4407F64D0FFF7BAFFEE
:10D65000002223682277D6E76FF0080104221961BF
:10D660002277DB692046990752D1FFF7A9FF2046B0
:10D67000FFF7AAFF002223682277BEE76FF00401BC
:10D680000222196122779B69204613F4407F3CD126
:10D69000FFF796FF2046FFF797FF002223682277C7
:10D6A000A5E76FF002010122196102779B699B07D0
:10D6B00025D0FFF787FF00222368227791E76FF0DC
:10D6C00020022046BDE810401A6100F05DB86FF0FE
:10D6D000010220461A61FBF78DFE236899E76FF07F
:10D6E000800220461A6100F051F8236897E76FF036
:10D6F000400220461A61FFF769FF236895E7FFF7AC
:10D700005FFF2046FFF760FFD5E7FFF75BFFC4E749
:10D71000FFF758FFAEE7FFF753FF2046FFF754FF30
:10D7200096E700BF90F83C20012A27D0034602204C
:10D730001A6830B483F83D0050680C68104D20F032
:10D7400070002043AA429468506009D0B2F1804F23
:10D7500006D00C48824203D000F58060824204D19A
:10D76000496824F080040C4394600022012183F86E
:10D770003C2083F83D10104630BC704702207047B3
:10D78000002C014000040040704700BF704700BFFC
:10D79000002865D070B590F84130044603F0FF02D0
:10D7A000002B55D0D4E902262421236884F84110A7
:10D7B000D968206921F40051A56902436069D960E4
:10D7C0001969024321F4405131431961D968254850
:10D7D00021F4B05121F00C010A43DA605A69834206
:10D7E00022F4407242EA05025A6136D0FFF7AEFADF
:10D7F000626800EB8003920003EB8303B3FBF2F358
:10D800004FF0640E00254FF0200C17482168A0FB54
:10D81000036252090EFB12331B013233A0FB0303D8
:10D82000120102EB53128A600B69284623F49043DD
:10D830000B614B6923F02A034B61CB6843F400531F
:10D84000CB60656484F841C084F842C0656370BDF4
:10D8500080F84020FEF7E4F8A4E7FFF787FAC7E76F
:10D8600001207047003801401F85EB512DE9F84336
:10D870001D4690F84130202B6BD1884609B11746E0
:10D8800012B90120BDE8F88321234FF000090446B6
:10D89000C0F8449080F84130FEF794F9A36806463A
:10D8A000B3F5805FA784E78456D0E38C9BB2002B4E
:10D8B0007BD02368691C1BD11A681206FCD5B8F10D
:10D8C000000F41D018F8012B5A60E28C013A92B255
:10D8D000E284E28C92B2002AECD1681C42D11A6830
:10D8E0005106FCD5202384F841300020BDE8F883A0
:10D8F0001A681706E3D42DB1FEF764F9801B854240
:10D900002368D7D203F10C0252E8002F22F4D07220
:10D9100003F10C0040E800210029F3D103F11402C7
:10D9200052E8002F22F0010203F1140040E8002128
:10D930000029F3D1202384F8401084F8413084F882
:10D9400042300320BDE8F88339F8022BC2F3080205
:10D95000BAE70220BDE8F8832369002BA5D1C146B0
:10D960009846A2E71A685206BCD42DB1FEF72AF9F0
:10D97000831B9D422368B0D203F10C0252E8002FB2
:10D9800022F4D07203F10C0040E800210029F3D109
:10D9900003F1140252E8002F22F0010203F11400F7
:10D9A00040E800210029F3D1C4E7236895E700BFD0
:10D9B0002DE9F8431F4690F84230202B76D1884657
:10D9C00009B1164612B90120BDE8F88322234FF0B1
:10D9D00000090446C0F8449080F84230C0F8309006
:10D9E000FEF7F0F8A3680546B3F5805FA685E685E7
:10D9F0005FD0E38D9BB2EBB1781C236820D11A680D
:10DA00009106FCD5B8F1000F4AD0A268B2F5805F4C
:10DA100004D0002A40D12269002A3DD15B68DBB2E4
:10DA200008F8013BE28D013A92B2E285E38D9BB2A8
:10DA3000002BE1D1202384F842300020BDE8F88398
:10DA40001A689206DED42FB1FEF7BCF8401B87425D
:10DA5000D2D2236803F10C0252E8002F22F4D072D4
:10DA600003F10C0040E800210029F3D103F1140276
:10DA700052E8002F22F0010203F1140040E80021D7
:10DA80000029F3D1202384F8401084F8413084F831
:10DA900042300320BDE8F8835B6803F07F03BFE7F3
:10DAA0005B68C3F3080329F8023BBBE70220BDE82B
:10DAB000F8832369002B9CD1C146984699E700BFA3
:10DAC00090F84230202B1ED101B10AB901207047D5
:10DAD00000234FF0220C8162016903638285C285B5
