:020000040800F2
:1018000000500020A13B0008613B0008653B000838
:10181000693B00086D3B0008713B000800000000B8
:10182000000000000000000000000000753B000800
:10183000793B0008000000007D3B0008813B000868
:10184000E93B0008E93B0008E93B0008E93B0008E8
:10185000E93B0008E93B0008E93B0008E93B0008D8
:10186000E93B0008E93B0008E93B0008E93B0008C8
:10187000E93B0008E93B0008E93B0008E93B0008B8
:10188000E93B0008E93B0008E93B0008E93B0008A8
:10189000E93B0008E93B0008E93B0008E93B000898
:1018A000E93B0008E93B0008E93B0008E93B000888
:1018B000853B0008E93B0008E93B0008E93B0008DC
:1018C000E93B0008E93B0008E93B0008E93B000868
:1018D000E93B0008E93B0008E93B0008E93B000858
:1018E000E93B0008E93B0008E93B00080000000074
:1018F00000000000000000000000000000000000E8
:0C19000000000000000000005FF808F18B
:10190C0010B5054C237833B9044B13B10448AFF32D
:10191C0000800123237010BD18000020000000007F
:10192C005054000808B5034B1BB103490348AFF3EF
:10193C00008008BD000000001C000020505400086E
:10194C0010B5294C01222368998E186B02F016FDF4
:10195C0023680122598FD3F8360002F00FFD23685B
:10196C000122B3F84010D86B02F008FD2368012265
:10197C00B3F84610D3F8420002F000FD23680022B1
:10198C009988186802F0FAFC236800225989D3F868
:10199C00060002F0F3FC23680022198AD86802F0D2
:1019AC00EDFC23680022D98AD3F8120002F0E6FC81
:1019BC0023680022998B986902F0E0FC23680022CE
:1019CC00598CD3F81E0002F0D9FC23680022198D23
:1019DC00586A02F0D3FC23680022BDE81040D98D70
:1019EC00D3F82A0002F0CABC500000202DE9F04FB9
:1019FC0080460F4616461D4683B0364C9DF8303057
:101A0C009DF834B001939DF838A09DF83C90FFF7F9
:101A1C0097FF226891881068424602F0AFFC20685C
:101A2C003A464189D0F8060002F0A8FC20683246FC
:101A3C00018AC06802F0A2FC20682A46C18AD0F84C
:101A4C00120002F09BFC019B1A462368998B986943
:101A5C0002F094FC23685A46598CD3F81E0002F00D
:101A6C008DFC23685246198D586A02F087FC236856
:101A7C004A46D98DD3F82A0002F080FC164B1A780E
:101A8C002368012A0CD0022A1AD092B10022B3F892
:101A9C004610D3F8420003B0BDE8F04F02F06EBC24
:101AAC000022598FD3F8360003B0BDE8F04F02F096
:101ABC0065BC998E186B03B0BDE8F04F02F05EBCAC
:101ACC000022B3F84010D86B03B0BDE8F04F02F021
:101ADC0055BC00BF500000203C00002010B4054C49
:101AEC002060054C2160054C0549226010BC0B6040
:101AFC0002F088BF54000020500000204C00002051
:101B0C0048000020014B186802F07CBF54000020F4
:101B1C00014B186802F0A2BF540000200388024653
:101B2C005D2B41D8402B4DD843B1203B9BB21D2B94
:101B3C0045D85B4921FA03F3DB0740D553885D2B6D
:101B4C0051D8402B5DD843B1203B9BB21D2B36D8CE
:101B5C00534921FA03F3DB0731D593885D2B61D808
:101B6C00402B6DD843B1203B9BB21D2B27D84C4941
:101B7C0021FA03F3DB0722D5D3885D2B71D8402BD8
:101B8C007DD843B1203B9BB21D2B18D8444921FA78
:101B9C0003F3DB0713D5002310B4424C10685168D3
:101BAC0003C4184610BC70477C2B15D85E2B06D08E
:101BBC003D495F3B9BB221FA03F3D807BED4042303
:101BCC00184670473949413B9BB221FA03F3D907B8
:101BDC00B4D4042318467047A3F58073092BEED8B0
:101BEC0053885D2BADD97C2B15D85E2BE7D02E49B5
:101BFC005F3B9BB221FA03F3D807AED404231846FB
:101C0C0070472A49413B9BB221FA03F3D907A4D46C
:101C1C00042318467047A3F58073092BCFD89388FB
:101C2C005D2B9DD97C2B15D85E2BC8D01E495F3BF4
:101C3C009BB221FA03F3D8079ED4042318467047AD
:101C4C001A49413B9BB221FA03F3D90794D40423DC
:101C5C0018467047A3F58073092BB0D8D3885D2B39
:101C6C008DD97C2B15D85E2BA9D00F495F3B9BB22D
:101C7C0021FA03F3D8078ED40423184670470B4976
:101C8C00413B9BB221FA03F3D90784D404231846B1
:101C9C007047A3F58073092B7FF67DAF8FE700BFEC
:101CAC008560FF2340000020B9A66920BFC814142A
:101CBC00034B02681B681B689A4203D0704700BF35
:101CCC005400002030B57F4C7F4D23682A6885B0C6
:101CDC00934200F0FF80002B40F020817B4A7C4B2C
:101CEC00127833F81230223BE72B00F22A81DFE81E
:101CFC0013F0610228012801280128015B02280148
:101D0C002801280128012801570252022801080144
:101D1C002D014B0244021B023F0125021F023A0116
:101D2C001602280128012801BA01280128012801DE
:101D3C00B3013A0159010801AD014C012801A00180
:101D4C00280128012801DD01280128010801D00102
:101D5C00280128013F012801C90128012801280177
:101D6C002801280159012801C10128010F0228016D
:101D7C00280109020302FD0128014C012801F6018A
:101D8C00EF01280128012D012801E801E3012801B8
:101D9C0028019A0128018D018001280128012801C0
:101DAC002801280128012D012801280128012801DA
:101DBC0028012801280128012801280128012801CF
:101DCC0028012801280128012801280128012801BF
:101DDC0028012801280128012801280128012801AF
:101DEC00280128012801280128012801280128019F
:101DFC00280128012801280128012801280128018F
:101E0C00280128012801280128012801280128017E
:101E1C00280128012801280128012801280128016E
:101E2C00280128012801280128012801280128015E
:101E3C00280128012801280128012801280128014E
:101E4C00280128012801280128012801280128013E
:101E5C00280128012801280128012801280128012E
:101E6C00280128012801280128012801280128011E
:101E7C00280128012801280128012801280128010E
:101E8C0028012801280128012801280128012801FE
:101E9C0028012801280128012801280128012801EE
:101EAC00280128012801280128012801280179018D
:101EBC0073016C0165015F013B0234022E022C029E
:101ECC003F0200BF380000204C0000203C000020E6
:101EDC0040000020BD4D2B68002B00F07281BC4AE5
:101EEC00013312682B60934209D30021B94A216057
:101EFC00137829600133DBB2042B13701ED005B0AC
:101F0C0030BD0022012303920292019300931A46E2
:101F1C0019461846FFF76AFD23682A680133934275
:101F2C002360ECD3AA4B1B68002BE8D1A94A236091
:101F3C0013780133DBB2042B1370E0D10023137040
:101F4C00DDE7FFF7FDFC23682A68E7E700230122A1
:101F5C00CDE902330193184611460093FFF746FD75
:101F6C0023682A68DAE701230022CDE90232CCE7A4
:101F7C00002101230391CDE9013300911A46184643
:101F8C00FFF734FD23682A68C8E701200023CDE958
:101F9C000000CDE902031A461946FFF727FD236816
:101FAC002A68BBE700220123CDE902220193D2E784
:101FBC00012200230392CDE90122CCE70123002268
:101FCC00CDE9023301920092A1E701230022CDE971
:101FDC000233CDE900329BE7002301220193CDE9C6
:101FEC000232B8E701230022CDE90033CDE9022308
:101FFC008DE700210123CDE9021101911A460093CE
:10200C000846FFF7F3FC23682A6887E701230022C0
:10201C00CDE902320193009311461046FFF7E6FC1E
:10202C0023682A687AE7002301220193CDE9022371
:10203C00C9E7012200231146CDE902231846CDE958
:10204C000022FFF7D3FC23682A6867E701230022EC
:10205C000193CDE902327EE701220023CDE9002273
:10206C00CDE90223D8E700220123CDE90022CDE9F6
:10207C000232D1E700210123CDE901111A46039167
:10208C00009145E700200123CDE902000193009364
:10209C0081E70121002308461A46CDE90213CDE958
:1020AC000011FFF7A3FC23682A6837E700220123FD
:1020BC00CDE902220193AEE701230021CDE90231E3
:1020CC009BE701220023CDE90223CDE900231FE782
:1020DC0000230122CDE90233CDE9003318E70122B8
:1020EC000023CDE90022CDE9022311E700200123D2
:1020FC000190CDE90230CAE701230022CDE902327A
:10210C00019288E7012300210193CDE9023175E7A3
:10211C0000220123CDE90222CDE900227CE7012235
:10212C000023CDE90223EBE700230122039342E7CE
:10213C0000230122CDE9023301936CE70123002136
:10214C00CDE90033CDE9023118E70123C1E70023C3
:10215C0001220193CDE902325DE701230021CDE993
:10216C000233CDE9003309E701230021039302E791
:10217C0001220023CDE90222C2E700220123CDE98E
:10218C000022CDE90232C2E601230022CDE902325F
:10219C00CDE90032BCE600230122CDE90232B4E6DF
:1021AC00002301220393AFE600230122CDE9023381
:1021BC000192ABE600230121CDE90233CDE90031D8
:1021CC00DCE6FFF7BDFB2B6889E600BF340000207E
:1021DC00480000203C00002000238446BB2200B5B0
:1021EC00164885B00190012102A88DF809308DF8B0
:1021FC000A308DF80B308DF80C308DF808C08DF846
:10220C000D2000F017FB0E4BCDF809001B7853B1D5
:10221C00012B05D142F228320A2101A801F0C4F8A1
:10222C0005B05DF804FB074842F228330A2201A9E5
:10223C00006802F0A3FF05B05DF804FBAA030100DF
:10224C00580000208004002070B5264C264D2070CC
:10225C00264E274C86B032602960236058B1012885
:10226C000FD1084600F050FC23689988186802F0DA
:10227C007FF8012802D0002006B070BD01F034F8C0
:10228C0010B9042006B070BD00F0A0FC0028F8D1F5
:10229C00184A03AB07CA03C3092103A81A7000F03C
:1022AC00F1FC0028EDD1302000F030FE0028E8D100
:1022BC00114B93E80300019001A8ADF8081000F051
:1022CC0091FE0028DDD1302000F036FF0028D8D157
:1022DC00302000F09DFF0028D3D100F01BFC00281B
:1022EC00CAD0CEE758000020800400207C040020D7
:1022FC00780400206854000874540008012300225C
:10230C002DE9F04FA24FA34DA34CA44EDFF89082C1
:10231C0089B004EB03093A602B7096F800A0BAF16F
:10232C00000F0BD0BAF1010F1CD00120FFF754FFA6
:10233C004FF0040B584609B0BDE8F08F42F2283339
:10234C0001229549D8F8000002F0BAFF0128ECD020
:10235C00831EDBB2012B48D84FF0020B584609B054
:10236C00BDE8F08F42F2283251468B4801F032F82A
:10237C0070BB2378AA2BD8D1514642F2283248465A
:10238C0001F028F820BB6378032BCED842F2283218
:10239C000221844801F01EF8D0B963880093002B09
:1023AC0000F0E2814FF0040B03EB0B0A1FFA8AFAE0
:1023BC0002E0D34500F093805846012142F22832C6
:1023CC008B4420441FFA8BFB01F004F80028F0D05A
:1023DC0002288346C0D0BBF1040FA6D00120FFF722
:1023EC00FBFE584609B0BDE8F08F002875D1237864
:1023FC00AA2B9AD142F2283301224946D8F8000080
:10240C0002F05EFF012890D0831EDBB2012BA3D912
:10241C00002862D16378032B87D842F2283302223A
:10242C006049D8F8000002F04BFF01283FF47DAF63
:10243C00831EDBB2012B8FD900284ED16388009309
:10244C00002B00F0E7814FF0040A53441FFA83FB82
:10245C00012242F22833D8F8000004EB0A0102F002
:10246C002FFF821E0128D2B23FF45FAF012A7FF604
:10247C0073AF0AF1010A1FFA8AFA70BBDA45E7D189
:10248C0004EB0B0A42F2283304225146D8F8000020
:10249C0002F016FF01283FF448AF831EDBB2012B7C
:1024AC007FF65AAFC8B90BF10403DAF800209BB2DF
:1024BC0004EB030A0193934642F22833012251465E
:1024CC00D8F8000002F0FCFE01283FF42EAF831E6A
:1024DC00DBB2012B7FF640AFF0B183467BE7DA46E7
:1024EC0042F22832042104EB0A0000F073FF0028AA
:1024FC007FF46EAF0BF1040354F80A209BB204EB8B
:10250C00030A9346012142F228325046019300F00F
:10251C0061FF00287FF45CAF9AF80030BB2B7FF48E
:10252C0004AF0099204800F085F958457FF4FDAEC2
:10253C0040F20942019B01339BB293423FF6F5AE48
:10254C006378002B40F0B7802179022900F0C48019
:10255C002A78042A3FF6E9AEDFE802F01003862C55
:10256C00970000297FF4E1AE02232B704FF4A603F1
:10257C000E4843600E4B0360FFF7D0FA0020FFF7C4
:10258C002BFE287800287FF4C8AE8346D2E600BF25
:10259C0070040020740400205C000020580000200F
:1025AC00800400205E0000206000002068040020F1
:1025BC0045004F00012B7FF4B8AE0093FFF7A8FA4B
:1025CC00B4F802A01AF0030B7FF4AFAE3B68019392
:1025DC0001F0E8FB01283FF4A8AE821ED2B2012A1A
:1025EC00009B7FF6A5AE002840F0AC80019A002A33
:1025FC0000F0BE804FF0FF33BAF1040F049340F2A9
:10260C00CE80AAF104039BB2009339684FEA9B0376
:10261C0004EB830301F100615A680220002301F5E9
:10262C00004101F0E5FB821E0128D2B23FF47DAEE1
:10263C00012A7FF67DAE0BF1040B1FFA8BFB0028F1
:10264C0040F080803B6804333B60009B5B45DCD8EA
:10265C00AAEB0B0A71495FFA8AF31A46594404A88B
:10266C00009302F0E1FEA4E0022B7FF45EAEE27C6C
:10267C00002A55D0012A35D00120FFF7ADFD4FF0CF
:10268C00030B57E6002B7FF450AE2279012A7FF41E
:10269C004CAEDFF88CA10093DAF800206148916809
:1026AC0000F0C8F8DAF80020D26890427FF43DAE12
:1026BC00009B2B7062E72A78042A3FF636AE01A104
:1026CC0051F822F0892500083723000875260008E8
:1026DC00C1250008912600080020FFF77DFD4FF072
:1026EC00010B27E66368B3F5D04FC5D8552340F2EC
:1026FC0001124D48DFF828A14360DAF80030DA8285
:10270C004A4B0360FFF70AFAA368DAF80000C360CB
:10271C006368836000F076F9A0B903232B702DE772
:10272C006168B1F5B03FA7D82B705523DFF8F0A046
:10273C003D484360DAF80030DA823D4B0360FFF726
:10274C00EDF9E1E783460BF1FF33032B3FF6F2ADD6
:10275C0001A151F823F000BFE52600083D23000835
:10276C0085260008372300084FF0040AD346B7E645
:10277C005822CDE904032B4B03A904A8CDE906325A
:10278C0001F086FC01283FF4D0AD831EDBB2012B97
:10279C007FF6CEAD00283FF42DAF8346D3E75FFA2A
:1027AC008AF20092BAF1000F31D01C4904A802F051
:1027BC003BFE3968002301F100610220049A01F507
:1027CC00004101F015FB01283FF4AFAD821ED2B2DF
:1027DC00012A7FF6ADAD0028B4D13B68009A1344B2
:1027EC003B6001F0F5FB01283FF49FAD821ED2B295
:1027FC00012A7FF69DAD0028A4D1094B1B689A686D
:10280C003B689A423FF6BAAE04232B70B6E6CDF87D
:10281C0000A0CEE74FF0040B32E600BF60000020B2
:10282C007C04002000800008680400204200460060
:10283C00410046004B1E033313D802464FF0FF30C5
:10284C00114410B4084C0244014412F8013F83EACD
:10285C00106354F82330914283EA0020F5D110BC68
:10286C0070474FF0FF3070477C540008D0B586B0ED
:10287C00044601F097FA012806D0831EDBB2012B27
:10288C0005D8022006B0D0BD042006B0D0BD00286B
:10289C00F8D101230026012701A902A8CDE902677E
:1028AC000494059301F0F4FB0128EDD0831EDBB2F8
:1028BC00012BE6D90028E5D101F08AFB0128E3D0F1
:1028CC00831EDBB2012BDCD9DCE700BFF8B52E4B45
:1028DC002E4F002118462E4C2E4D3B6005E0AB428E
:1028EC0020464FF001012FD01C46E27F04F120035B
:1028FC00FF2AF4D1C67F002EF1D101B138601C2122
:10290C000430FFF797FF3B681A6882420BD1214ACB
:10291C00944235D01E4A934228D01F4A93421CD071
:10292C0000263046F8BD1A48FFF7A0FF10B1052667
:10293C003046F8BD1848FFF799FF0028F7D100235F
:10294C001E463B603046F8BD144B93F8FF30FF2B0E
:10295C00F5D00D4B104A9342E2D113F8013C002BF9
:10296C00DED1BDE8F8400A48FFF780BF0B4B93F867
:10297C00FF30002BD5D1BDE8F8400748FFF776BFF4
:10298C00DA7FFF2AC6D1DAE7E0EF010884040020E1
:10299C0000E0010800F0010800E8010800EF010860
:1029AC00164B84461B6810B5ABB14FF0000E59683E
:1029BC009A681869DC68CCF80C00CCF80010CCF8DC
:1029CC000420CCF8084059699A69CCF81010CCF85E
:1029DC001420704610BD4FF0060E094C0FCCCCF8ED
:1029EC000000CCF80410CCF80820CCF80C3003CC48
:1029FC00CCF81000CCF81410704610BD84040020E4
:102A0C0004E001082DE9F04186464FF0FF346FF0E9
:102A1C007F4688B00068DEF80410DEF80820DEF887
:102A2C000C300DF1040CACE80F00DEF81000DEF8F1
:102A3C001410314DACE803001C2101A80594ADF82D
:102A4C0018400796FFF7F6FE2C680090002C47D034
:102A5C002A4A2B4B2034944208BF1C4601F0A2F9A1
:102A6C00012819D0821ED2B2012A03D8022008B044
:102A7C00BDE8F0810028FAD12746ADF104060DF12E
:102A8C001C0800233946022056F8042F01F0B0F937
:102A9C00831E0128DBB203D1042008B0BDE8F0810D
:102AAC00012BE3D904370028E1D14645E9D101F0E7
:102ABC008FFA0128F0D0831EDBB2012BD6D9002867
:102ACC00D5D10F4B2C609C420CD00E4B9C42CED1DE
:102ADC0014F8013C002BCAD10948FFF7C7FEC6E722
:102AEC00074CBBE703F5706393F8FF30002BBED1A6
:102AFC000448FFF7BBFEBAE78404002000F001088D
:102B0C0000E0010800E80108014B1860704700BFA5
:102B1C009C04002070B5294C294D4FF4A073012260
:102B2C002146286802F0CCFB0328F6D12549264A19
:102B3C004FF4A073C4E90012286808221F4902F060
:102B4C001DFB0128064606D0831EDBB2012B05D8DF
:102B5C000226304670BD0426304670BD0028F8D1E0
:102B6C004FF4A07308221549286802F0A9FB01282C
:102B7C000646F0D0831EDBB2012BE9D90028E8D140
:102B8C0023784F2BE7D163784B2BE4D1A3782B2BF5
:102B9C00E1D1E378522BDED12379452BDBD163795C
:102BAC00532BD8D1A379452BD5D1E379542BD2D142
:102BBC004FF47A7001F05CF8CBE700BF880400207A
:102BCC009C04002041542B524553455470B5294C5C
:102BDC00294D4FF4A07301222146286802F070FBA6
:102BEC000328F6D12549264A4FF4A073C4E90012F4
:102BFC00286808221F4902F0C1FA0128064606D0AF
:102C0C00831EDBB2012B05D80226304670BD04268C
:102C1C00304670BD0028F8D14FF4A0730822154936
:102C2C00286802F04DFB01280646F0D0831EDBB26B
:102C3C00012BE9D90028E8D123784F2BE7D1637811
:102C4C004B2BE4D1A3782B2BE1D1E378522BDED1A3
:102C5C002379452BDBD163794E2BD8D1A379452B26
:102C6C00D5D1E379572BD2D14FF47A7001F000F81B
:102C7C00CBE700BF880400209C04002041542B5259
:102C8C00454E45570C2900F232812DE9F0410E4694
:102C9C000746994C994D4FF4A073012221462868A0
:102CAC0002F00EFB0328F6D1954B4522236044F627
:102CBC00415306F107085FFA88F8B8F1070FA271C3
:102CCC00A38000F016818F4BDB1B022B40F2CB80D4
:102CDC00731E052B40F2C7803B68C4F80730B3085D
:102CEC00012B00F0A2807A68032BC4F80B2040F073
:102CFC009C80BB68C4F80F301FFA88F24FF4A073A5
:102D0C007D49286802F03AFA012800F08B80831E76
:102D1C00DBB2012B02D80220BDE8F0810028FBD1E8
:102D2C004FF4A07342462868734902F0C9FA01288F
:102D3C0078D0831EDBB2012BEDD90028ECD1724B7D
:102D4C0021781A7891426DD161785A78914269D183
:102D5C00A1789A78914265D1E178DA78914261D183
:102D6C0021791A7991425DD161795A79914259D17F
:102D7C009B79A2799A4255D1B8F1070FCCD0E27960
:102D8C003B789A424ED1B8F1080FC5D0227A7B78A5
:102D9C009A4247D1B8F1090FBED0627ABB789A42F9
:102DAC0040D1B8F10A0FB7D0A27AFB789A4239D148
:102DBC00B8F10B0FB0D0E27A3B799A4232D1B8F12C
:102DCC000C0FA9D0227B7B799A422BD1B8F10D0F35
:102DDC00A2D0627BBB799A4224D1B8F10E0F9BD062
:102DEC00A27BFB799A421DD1B8F10F0F94D0E27BF4
:102DFC003B7A9A4216D1B8F1100F8DD0227C7B7A97
:102E0C009A420FD1B8F1110F86D0627CBB7A9A42EC
:102E1C0008D1B8F1130F7FF47FAFA27CFB7A9A42F2
:102E2C003FF47AAF0420BDE8F08106F0FC03DA1D14
:102E3C009E42D2B23FF460AFF95CA15403F1080298
:102E4C00D2B2591C9045C9B27FF656AF795CA154E9
:102E5C0003F10902D2B202339045DBB27FF64CAFDC
:102E6C00FB5CA35448E73B78B8F1080FE3713FF4DF
:102E7C0043AF7B78B8F1090F23723FF43DAFBB78B9
:102E8C00B8F10A0F63723FF437AFFB78B8F10B0F50
:102E9C00A3723FF431AF3B79B8F10C0FE3723FF4FE
:102EAC002BAF7B79B8F10D0F23733FF425AFBB79B2
:102EBC00B8F10E0F63733FF41FAFFB79B8F10F0F2E
:102ECC00A3733FF419AF3B7AB8F1100FE3733FF4DF
:102EDC0013AF7B7AB8F1110F23743FF40DAFBB7AAB
:102EEC00B8F1130F637404BFFB7AA37404E70420D6
:102EFC007047424602E700BF880400209C04002073
:102F0C0041542B4E8E04002000000020A0F1300311
:102F1C00012B01D90420704770B505462D4C2E4E5F
:102F2C004FF4A07301222146306802F0C9F903283E
:102F3C00F6D144F64F4E4FF0450C284B0822236037
:102F4C0024494FF4A0733068E571A4F804E084F8C8
:102F5C0006C002F013F9012810D0821ED2B2012A49
:102F6C0001D8022070BD0028FCD14FF4A0730822B8
:102F7C003068184902F0A4F9012801D1042070BD71
:102F8C00821ED2B2012AECD90028EBD1144B227844
:102F9C0019789142F2D161785A789142EED1A178A8
:102FAC009A789142EAD1E178DA789142E6D12179A6
:102FBC001A799142E2D161795A799142DED1A279A2
:102FCC009B799A42DAD1E079401B18BF012080002E
:102FDC0070BD00BF880400209C04002041542B527B
:102FEC0000000020F8B50378303B092B00F28A80F2
:102FFC0043780546303B092B00F1010700F2828033
:10300C008378303B092B7DD8C378303B092B79D89A
:10301C000379303B092B75D84379303B092B71D898
:10302C00404C414E4FF4A07301222146306802F00F
:10303C0047F90328F6D13D4B5322236045F2413327
:10304C00A3803B4BA271DB1B022B5DD92B68C4F810
:10305C0007302B79E3726B7923734FF4A0730D2235
:10306C003049306802F08AF801284BD0831EDBB25D
:10307C00012B01D80220F8BD0028FCD14FF4A0731D
:10308C000D223068274902F01BF901283AD0831E23
:10309C00DBB2012BEED90028EDD1264B21781A7822
:1030AC0091422FD161785A7891422BD1A1789A789C
:1030BC00914227D1E178DA78914223D121791A799A
:1030CC0091421FD161795A7991421BD1A2799B7996
:1030DC009A4217D1E2792B789A4213D1227A6B78E3
:1030EC009A420FD1627AAB789A420BD1A27AEB78E2
:1030FC009A4207D1E27A2B799A4203D1227B6B79DF
:10310C009A42B8D00420F8BD2B78E3716B78237207
:10311C00AB786372EB78A3722B79E3726B792373C0
:10312C009BE700BF880400209C04002041542B50D6
:10313C008F0400200000002000F0FD03302B01D094
:10314C000420704770B506462D4C2E4D4FF4A073DD
:10315C0001222146286802F0B3F80328F6D145F283
:10316C00590E4FF0450C284B0822236024494FF48C
:10317C00A0732868E671A4F804E084F806C001F096
:10318C00FDFF012805D0831EDBB2012B03D80220E2
:10319C0070BD042070BD0028FAD14FF4A073082232
:1031AC002868174902F08CF80128F2D0831EDBB294
:1031BC00012BECD90028EBD1144B227819789142D1
:1031CC00E7D161785A789142E3D1A1789A7891420B
:1031DC00DFD1E178DA789142DBD121791A79914209
:1031EC00D7D161795A799142D3D1A2799B799A42FC
:1031FC00CFD1E379981B18BF0120800070BD00BFB0
:10320C00880400209C04002041542B540000002012
:10321C00A0F13003022B01D90420704770B506468B
:10322C002D4C2E4D4FF4A07301222146286802F03C
:10323C0047F80328F6D144F24F4E4FF0450C284B7B
:10324C000822236024494FF4A0732868E671A4F87F
:10325C0004E084F806C001F091FF012805D0821E1D
:10326C00D2B2012A03D8022070BD042070BD002800
:10327C00FAD14FF4A07308222868174902F020F8FD
:10328C000128F2D0821ED2B2012AECD90028EBD14F
:10329C00144B227819789142E7D161785A7891428F
:1032AC00E3D1A1789A789142DFD1E178DA78914232
:1032BC00DBD121791A799142D7D161795A7991422E
:1032CC00D3D1A2799B799A42CFD1E079801B18BFD8
:1032DC000120800070BD00BF880400209C040020E9
:1032EC0041542B4D0000002070B52C4D2C4C4FF44C
:1032FC00A07301222946206801F0E2FF0328F6D1D1
:10330C0045F241464FF4A0730222244920682E80D6
:10331C0001F034FF431EDBB2022B02D800263046EC
:10332C0070BD0028FAD14FF4A07302221B4920680B
:10333C0001F0C6FF431EDBB2022B0646EED9002875
:10334C00ECD12B784F2BE9D16B784B2BE6D14FF48A
:10335C00A07305222068134901F0B2FF0128DED0CA
:10336C00831EDBB2012B01D80126D8E700B280B94D
:10337C00AB782B2BD2D1EB784C2BCFD12B794F2B8D
:10338C00CCD16B79532BC9D1AB79542BC6D1022636
:10339C00C5E7831E5E425E41C1E700BF8804002082
:1033AC009C0400208A0400208C4608B586461346EF
:1033BC00074A71461068624601F0E0FE012805D00C
:1033CC00831EDBB2012B98BF022008BD042008BD70
:1033DC009C0400208C4608B586461346074A714665
:1033EC001068624601F06CFF012805D0831EDBB229
:1033FC00012B98BF022008BD042008BD9C040020AE
:10340C0038B50B4D0446EB68013303D0A9684B1E4D
:10341C00033302D90023237038BDAB7D012BF9D0C7
:10342C000448FFF707FAEB688342F3D1F4E700BFD7
:10343C000005002000800008012300B583B01A4667
:10344C00134801A901F03CFF032802D103B05DF839
:10345C0004FB01230E481A460DF1050101F030FF63
:10346C000328F3D001230A481A460DF1060101F096
:10347C0027FF0328EAD0012305481A460DF107015E
:10348C0001F01EFF0328E1D0FFF7D6FFDEE700BFF7
:10349C00A8050020202230B591B000210DEB0200D0
:1034AC0001F096FF012400234FF4803506A8CDE9E6
:1034BC000645CDE90233CDE90433019300F062FFF8
:1034CC0008B172B6FEE701460F240122902301A831
:1034DC00CDE90411CDE90142039301F043F908B1A0
:1034EC0072B6FEE711B030BD2DE9F047002492B062
:1034FC0000F09AFBFFF7CEFFCDE90B44CDE90D446C
:10350C00A74B01269A694FF4005142F010029A61C0
:10351C009A69A44802F010020192019A9A69022554
:10352C0042F020029A619A6902F020020292029AF9
:10353C009A6942F004029A619A6902F004020392B9
:10354C00039A9A6942F008029A619B69224603F039
:10355C0008030493049B00F011FF22464FF496716C
:10356C00914800F00BFF224648F2E3118F4800F01F
:10357C0005FF32464FF4E4418C4800F0FFFE4FF457
:10358C00005388480BA90B93CDE90C640E9500F001
:10359C00E1FD4FF4804383480BA90B93CDE90C4517
:1035AC0000F0D8FD4FF496737F480BA90B93CDE92F
:1035BC000C640E9500F0CEFD4FF2E3337B480BA963
:1035CC000B93CDE90D450C9600F0C4FD0C234FF484
:1035DC00165277484361774BC0E90244C0E9064470
:1035EC0004614260036001F05BFD08B172B6FEE756
:1035FC004FF0804240F29F136F4CCDE90B00CDE9A8
:10360C000D00C4E9010007902061A06108902046DC
:10361C002260E36001F088F908B172B6FEE74FF45E
:10362C00805520460BA90B9501F0A2FB034608B16F
:10363C0072B6FEE7204607A9CDE9073301F0FAFC84
:10364C00E0B940F219725D4C5D4BCDE90700CDE954
:10365C000900CDE90B00CDE90D00CDE90F00C4E95F
:10366C0001000590119006902061A0612046E26057
:10367C00236001F059F918B172B6FEE772B6FEE795
:10368C00204607A9079501F073FB08B172B6FEE757
:10369C00204601F0FFF9034608B172B6FEE720465A
:1036AC0005A9CDE9053301F0C5FC024608B172B697
:1036BC00FEE76023CDE90C000F900BA920460B937D
:1036CC0001F056FA08B172B6FEE7042220460BA9A7
:1036DC0001F04EFA08B172B6FEE7384800F0D4F9A2
:1036EC0001203849314B384A8B61C1E90032374AE5
:1036FC004B628A602C4A0B63CA60354ACB630A6101
:10370C00344A354B4A61354A0B64CA61344A354BED
:10371C000A62354A8DF82C008A62344A3448CA62EF
:10372C0002F17062C1E90D024B64062204232248A7
:10373C00FEF7D4F92F4C304A304B2046C4E9002315
:10374C000325FEF7EBF900F08DFA002300F5FA766D
:10375C0002E000F087FA03469E42FAD8FFF7B6F86B
:10376C00002855D0013D15F0FF05ECD1244DDFF8B4
:10377C009480254F254E3023C4E900766B60C5F844
:10378C0000801C48FEF7CAF94FF4FA6000F070FA9A
:10379C001B48FEF7C3F94FF4FA6000F069FAEAE748
:1037AC00001002400010014000080140000C0140D4
:1037BC00A8050020004800401805002060050020E6
:1037CC0000040040B80400200100000C014002007D
:1037DC0004000008014008000020000C2000000C30
:1037EC0001404000014000408000000C01400001FD
:1037FC000002000CB004002042006F006F00740047
:10380C00A8040020000005014500720072003D0074
:10381C004FF480466A4D2846FFF7C2F8694B6A4A56
:10382C0001201A6069492A469E80FEF70DFDD0B131
:10383C00674DDFF8A081684F684E4FF083713023DD
:10384C003046C5E90013C4E90087FEF767F94FF469
:10385C00FA6000F00DFA5E48FEF760F94FF4FA607A
:10386C0000F006FAE9E76B68013320D029685C4860
:10387C00FEF7E0FF6B68984219D0554DDFF8648174
:10388C00544F554E3023C4E900766B60C5F8008068
:10389C005248FEF743F94FF4FA6000F0E9F94C484E
:1038AC00FEF73CF94FF4FA6000F0E2F9EAE70BA8F6
:1038BC00FFF7A6FD40F6B83000F0DAF9FFF7BCFDD3
:1038CC004FF02E134548C4E900330746FEF726F99E
:1038DC0000F0C8F900254FF48A0A00F50C56DFF801
:1038EC0008912836FEF70AFD8046FEF70BF9B8F171
:1038FC00040F4AD8DFE808F003382D44240000F008
:10390C0027FAB542EED39DF82C30002BEAD00BA849
:10391C00FFF776FD9DF82C30002BE3D000232F48C9
:10392C00C4E90033FEF7FAF8012000F0A1F9FEF724
:10393C00EFF8012000F09CF92C4B5B689847FEE7F0
:10394C0000F090F9C4E9009A05463846FEF7E6F80F
:10395C00D7E700F087F94FF02E130546C4E9003382
:10396C003846FEF7DBF8CCE700F07CF94FF4A20305
:10397C00054663603846C4F80090FEF7CFF8C0E700
:10398C0000F070F94FF48603F2E7114DDFF8448034
:10399C00114F124E4FF0827230233046C5E900238E
:1039AC00C4E90087FEF7BAF84FF4FA6000F060F94A
:1039BC000748FEF7B3F84FF4FA6000F059F9E9E75D
:1039CC0000050020A004002000100140A8050020E4
:1039DC00A80400204500720072003D00B0040020D5
:1039EC00001800080000070145004F000080000887
:1039FC000A4B82B09A6942F001029A619A6902F00C
:103A0C0001020092009ADA6942F08052DA61DB69B5
:103A1C0003F080530193019B02B0704700100240E9
:103A2C0000B5036883B0B3F1804F12D0144A9342AF
:103A3C0002D003B05DF804FB124BDA6942F00202CB
:103A4C00DA61DB6903F002030193019B03B05DF8BB
:103A5C0004FB002203F50433D9691C2041F0010159
:103A6C00D961DB69114603F001030093009B00F060
:103A7C0023F91C2003B05DF804EB00F05BB900BF28
:103A8C000004004000100240002370B5114A016888
:103A9C0086B09142CDE90233CDE9043301D006B0B2
:103AAC0070BDC0240225022603F1804303F50433C4
:103ABC009A69094842F004029A619B6902A903F0D1
:103ACC0004030193CDE90245019B059600F042FBEE
:103ADC0006B070BD0004004000080140D0B50024C1
:103AEC001A4B026886B09A42CDE90244CDE90444EF
:103AFC0001D006B0D0BD03F5E433DA694FF480662B
:103B0C0042F48022DA61DA69022702F48022009200
:103B1C00009A9A6902A942F008029A619B690C48C2
:103B2C0003F0080301930323019A0593CDE902677F
:103B3C0000F010FB4FF400620023054802A9CDE908
:103B4C000223049400F006FB06B0D0BD00480040F0
:103B5C00000C0140FEE700BFFEE700BFFEE700BF20
:103B6C00FEE700BFFEE700BF704700BF704700BF15
:103B7C00704700BF00F06AB8014801F0B1B900BF4E
:103B8C0018050020014B024A9A60704700ED00E0D6
:103B9C0000180008FFF7F6FF0B480C490C4A0023ED
:103BAC0002E0D458C4500433C4188C42F9D3094AE7
:103BBC00094C002301E013600432A242FBD301F054
:103BCC000FFCFFF791FC7047000000201400002050
:103BDC00B05800081800002018060020FEE700006E
:103BEC0038B54FF47A730D4A054611780C4AB3FB7D
:103BFC00F1F31268B2FBF3F000F0BCF808B90F2D2A
:103C0C0001D9012038BD0446024629464FF0FF3049
:103C1C0000F052F8034B20461D6038BD0C0000200C
:103C2C000800002010000020074A08B51368032084
:103C3C0043F01003136000F02DF80F20FFF7D0FFB6
:103C4C00FFF7D6FE002008BD00200240034A044BBB
:103C5C0011681B780B441360704700BFF0050020FF
:103C6C000C000020014B1868704700BFF0050020C5
:103C7C0038B50446FFF7F6FF631C054602D0044B2B
:103C8C001B781C44FFF7EEFF401BA042FAD338BD53
:103C9C000C0000204FF6FF0C06490302CA6803F41F
:103CAC00E06302EA0C02134343F0BF6343F40033B6
:103CBC00CB60704700ED00E01C4B00B5DB68C3F334
:103CCC000223C3F1070EBEF1040F03F1040C28BF4D
:103CDC004FF0040EBCF1060F1BD94FF0FF3C033B19
:103CEC000CFA03FC22EA0C024FF0FF3C0CFA0EFC1F
:103CFC0021EA0C019940002841EA02010CDB090180
:103D0C0000F16040C9B200F5614080F800135DF825
:103D1C0004FB00221346E7E7054B00F00F000901F6
:103D2C00C9B2034419765DF804FB00BF00ED00E056
:103D3C00FCEC00E0002807DB012300F01F01034A24
:103D4C0040098B4042F82030704700BF00E100E092
:103D5C00BFF34F8F0549064BCA6802F4E062134368
:103D6C00CB60BFF34F8F00BFFDE700BF00ED00E05D
:103D7C000400FA050138B0F1807F0FD24FF0E02338
:103D8C004FF0F00C0022072110B4054C586184F858
:103D9C0023C010469A6110BC19617047012070470E
:103DAC0000ED00E080B483B000AF0023FB710D4B3D
:103DBC001B6903F08003002B0DD00A4B0A4A5A6092
:103DCC00084B0A4A5A60074B1B6903F08003002B0F
:103DDC0001D00123FB71FB7918460C37BD4680BC22
:103DEC00704700BF0020024023016745AB89EFCD2F
:103DFC002DE9704FDFF8D0A182B09AF81840CDE9C8
:103E0C000020012C00F0D2809B46012389468AF8C1
:103E1C001830FFF727FF4CF2503604466B4D05E087
:103E2C00FFF720FF001BB04200F2BE80EB68DA0700
:103E3C00F6D4EB689B0644BF2023EB60634BDA6837
:103E4C00D60658D4DA69D50755D4DB6813F00408C4
:103E5C0051D1019B012B04D0022B0CBF0223042354
:103E6C0001934CF25036594C00984FEA0813C3F1A9
:103E7C002001A3F120020BFA01F120FA03F30B430A
:103E8C0000212BFA02F2CAF81C10134322699BB2D0
:103E9C0042F001022261A9F80030FFF7E3FE05466B
:103EAC0004E0FFF7DFFE401BB04275D8E368D9078A
:103EBC00F7D4E3689A0644BF2023E360E368DB068B
:103ECC003CD4E369DD0739D4E06810F0040035D147
:103EDC00236908F1010823F001032361019B5FFAB8
:103EEC0088F2934209F10209BED800238AF81830EF
:103EFC0002B0BDE8708F354BDB6813F0100359D15D
:103F0C000421324AD268540706D50B46DAF81C2035
:103F1C0042F00102CAF81C202C4AD169C80709D505
:103F2C00DAF81C1041F00401CAF81C10D16921F018
:103F3C000101D161254A0120D360D6E7234BDA6811
:103F4C0012F010022ED014211022DAF81C3043F09B
:103F5C000203CAF81C301D4BDB68580706D50A460D
:103F6C00DAF81C3043F00103CAF81C30174BD9693E
:103F7C00C90709D5DAF81C1041F00401CAF81C1065
:103F8C00D96921F00101D961104B0120DA601A695D
:103F9C0022F001021A61A8E72369032023F0010330
:103FAC002361A2E70421D6E703209EE7022002B09A
:103FBC00BDE8708FDAF81C20142142F002021023A5
:103FCC00CAF81C209DE700BFF80500200020024025
:103FDC00034A0020136943F080031361704700BF4C
:103FEC000020024070B50446FFF73CFE0546264E05
:103FFC00601C36D1244AD368D907FCD4224BDA682A
:10400C00960644BF2022DA601F4BDA68D50607D427
:10401C00DA69D40704D4D86810F0040000D170BD5C
:10402C00194BDB6813F0100326D10421164AD26811
:10403C00500705D50B461549CA6942F00102CA6101
:10404C00114AD169C90708D51048C16941F004016A
:10405C00C161D16921F00101D1610B4A0120D3600A
:10406C0070BDF368DB07C9D524B1FFF7FBFD401B1E
:10407C00A042BDD9032070BD04481421C26910238D
:10408C0042F00202C261D1E700200240F805002094
:10409C002DE9F8432D4E337E012B54D0012333767A
:1040AC0003688146022B31D04CF250308846FFF722
:1040BC0099FF074678BB4FF0FF33C8F80030D9E9B9
:1040CC00025305EB83239D4225D2214C07E005F5D5
:1040DC008065D9E9023203EB8223AB421CD9F7612C
:1040EC0023694CF2503043F002032361656123696C
:1040FC0043F040032361FFF775FF236923F00203AC
:10410C0023610028E3D0C8F8005005E04CF2503091
:10411C00FFF768FF20B1012000233376BDE8F88358
:10412C000B4CF06123694CF2503043F004032361D3
:10413C00236943F040032361FFF754FF236923F005
:10414C0004032361E8E70220BDE8F883F8050020AA
:10415C00002002402DE9F04F0E6883B0002E00F0D5
:10416C00B58000227A4F924613467A4DDFF8E881EB
:10417C0006E0013336FA03F402F1040200F0A680E3
:10418C0001249C4034EA060E04EA060CF1D14E6878
:10419C00122E00F29E80122E1AD8DFE806F0A7B974
:1041AC00B5CE19191919191919191919191919B18A
:1041BC00BC00DFF8A8E1764500F098800EF5702E73
:1041CC00764500F09380AEF5801E764500F08E802B
:1041DC00BCF1FF0F9CBF864693464FF00F0684BF81
:1041EC0000F1040EA2F1200BDEF800400AFA0BF9E4
:1041FC0006FA0BFB24EA0B0444EA0904CEF800404F
:10420C004C6814F0805F79D0D7F818E003F00309FC
:10421C004EF0010EC7F818E0D7F818E04FEA8909FC
:10422C000EF0010ECDF804E0DDF804E023F0030EEF
:10423C000EF1804E0EF5803EDEF808B006FA09F657
:10424C002BEA0606DFF818B1584513D00BF5806B36
:10425C0058456BD0DFF80CB1584560D0DFF808B189
:10426C0058450CBF4FF0030B4FF0040B0BFA09F938
:10427C0046EA0906CEF80860AE6814F4801F14BF35
:10428C0046EA0C0626EA0C06AE60EE6814F4001F33
:10429C0014BF46EA0C0626EA0C06EE606E6814F4AF
:1042AC00003F14BF46EA0C0626EA0C066E6014F4B6
:1042BC00803F2C681FD044EA0C042C600E6801333C
:1042CC0036FA03F402F104027FF45AAF03B0BDE8EE
:1042DC00F08F46450AD07FF66CAFDFF890E076455C
:1042EC0004D00EF5803E76457FF472AF8E683EBBEF
:1042FC004FF0040A6CE724EA0C042C600E6838E7D3
:10430C00CC6804F1040A63E7CC6804F1080A5FE79F
:10431C00D1F80CA05CE7CC6804F10C0A58E74FF01C
:10432C00020B0BFA09F946EA0906A3E74FF0010B59
:10433C000BFA09F946EA09069CE74FF0000A47E731
:10434C00012E4FF0080A0CBF0461446140E700BF26
:10435C000010024000040140000022100000121066
:10436C000008014000100140001401400000311011
:10437C008368194214BF01200020704702B9090458
:10438C0001617047002800F0B6812DE9F041036807
:10439C000446DD0782B035D59A494A6802F00C0212
:1043AC00042A00F0EF804A6802F00C02082A00F0A0
:1043BC00E5806368B3F5803F10D0002B00F00C81D2
:1043CC00B3F5A02F00F082818E4B1A6822F4803254
:1043DC001A601A6822F480221A6004E0894A136871
:1043EC0043F480331360FFF73DFC864E054605E031
:1043FC00FFF738FC401B642800F2EA8033689A030C
:10440C00F6D523689F0728D57E4A516811F00C0F0A
:10441C0000F08D80516801F00C01082900F08380B8
:10442C002369002B00F018810122774B754E1A601E
:10443C00FFF718FC054605E0FFF714FC401B0228AB
:10444C0000F2C68033689807F6D53368626923F0AA
:10445C00F80343EAC203336023681A071FD45D07CD
:10446C0042D5684BDA69D0007DD50025674E33689C
:10447C00D90540F19D80E368012B00F0FE80002BF4
:10448C0000F0CA80052B5F4B1A6A00F02C8122F0D9
:10449C0001021A621A6A22F004021A62F2E0A3699B
:1044AC00002B4FD00122584B564EC3F88024FFF7F7
:1044BC00D9FB054605E0FFF7D5FB401B022800F2AF
:1044CC008780736A9B07F6D5514B524A1B68A2FB37
:1044DC0003235B0A019300BF019B5A1E0192002B20
:1044EC00F9D123685D07BCD4E069C0B1454D6B6858
:1044FC0003F00C03082B00F0D8800022424B02285A
:10450C001A6600F0FA80FFF7ADFB044604E0FFF7F3
:10451C00A9FB001B02285BD82B689B01F7D4002059
:10452C0002B0BDE8F0815268D6033FF579AF354A49
:10453C001268950730D52269012A2DD0012002B0CE
:10454C00BDE8F081304A2F4EC2F88034FFF78AFB69
:10455C00054604E0FFF786FB401B022838D8736A37
:10456C009F07F7D4BDE7DA69012542F08052DA6182
:10457C00DB6903F080530093009B77E74A68D00314
:10458C007FF517AF1F4A126891037FF53BAF626846
:10459C00002A7FF437AFD1E71A4960690A6822F024
:1045AC00F80242EAC0020A601A077FF558AF76E7B4
:1045BC00336843F480733360FFF754FB074633686A
:1045CC00DA053FF558AFFFF74DFBC01B6428F6D951
:1045DC00032002B0BDE8F0810A4D2B6823F4803330
:1045EC002B602B6823F480232B60FFF73BFB0646E4
:1045FC0004E0FFF737FB801B6428E9D82B689B038A
:10460C00F7D4FEE600100240000042420070004069
:10461C0008000020D34D6210504E41F28838336AA6
:10462C0023F001033362336A23F004033362FFF790
:10463C0019FB074604E0FFF715FBC01B4045C7D824
:10464C00336A9807F7D4002D3FF44EAF434AD36931
:10465C0023F08053D36147E7414A404E1360FFF784
:10466C0001FB054604E0FFF7FDFA401B0228AFD81A
:10467C0033689907F7D42368EFE6384A136A43F096
:10468C0001031362FFF7EEFA41F288380646334F06
:10469C0004E0FFF7E7FA801B404599D83B6A9B077B
:1046AC00F7D5002D3FF420AFD0E701283FF438AF09
:1046BC006B68226A03F4803191427FF43FAF606AE9
:1046CC0003F47013181A18BF012029E703F1804373
:1046DC00A3F53C331A6842F480221A601A6842F43B
:1046EC0080321A607FE642F004021A621A6A42F0C3
:1046FC0001021A62C6E701207047FFF7B3FA0646BB
:10470C0005E0FFF7AFFA801B02283FF661AF2B687C
:10471C009901F6D4236AB3F5803F05D16A68A16884
:10472C0022F400320A436A6001200C4D616A6A6807
:10473C000B4322F474120A4913436B600866FFF7AB
:10474C0091FA044605E0FFF78DFA001B02283FF6AC
:10475C003FAF2B689A01F6D5E1E600BF001002408E
:10476C0000004242002800F0A180564A2DE9F04199
:10477C001368044603F007038B420D460CD21368F2
:10478C0023F007030B431360136803F007038B42FA
:10479C0002D00120BDE8F08123689E0714D558078C
:1047AC0004D549494A6842F4E0624A60190704D5C5
:1047BC0045494A6842F460524A604349A0684A68D5
:1047CC0022F0F00202434A60DA0720D562683E4BC1
:1047DC00012A1B686CD0022A65D09E07D9D53A4EA7
:1047EC0041F28838736823F0030313437360FFF7B7
:1047FC0039FA074604E0FFF735FAC01B40455AD892
:10480C007368626803F00C03B3EB820FF3D12D4A8B
:10481C00136803F00703AB4209D9136823F00703AD
:10482C002B431360136803F00703AB42B1D1236829
:10483C00580706D52449E0684A6822F4E06202432E
:10484C004A60190707D5204A2169536823F460533D
:10485C0043EAC10353601C494A6802F00C03082B5D
:10486C0010D01A4B184A1A4852681A49C2F303124C
:10487C00805C194AC34008681360FFF7B1F9002047
:10488C00BDE8F0811548C2F38343D203C35C14D551
:10489C000E484A6800FB03F31149C2F340428A5C9C
:1048AC00B3FBF2F3DEE79F0199D472E70120704766
:1048BC009B0394D46DE703206CE70A4A02FB03F3D5
:1048CC00D0E700BF002002400010024000127A0026
:1048DC007C580008100000200800002094580008A4
:1048EC00A458000800093D00044B054A5B680549C3
:1048FC00C3F30223CB5C1068D84070470010024011
:10490C00080000208C580008044B054A5B680549D8
:10491C00C3F3C223CB5C1068D84070470010024030
:10492C00080000208C580008002866D010B590F8BC
:10493C003D30044603F0FF02002B45D002232268D1
:10494C002F4984F83D308A42136842D0B2F1804F2F
:10495C0011D0A1F594318A420DD001F580618A42C3
:10496C0009D0A06923F080030343E16813606368F6
:10497C00D162936210E0A16823F0700320690B43AD
:10498C0023F44073A169034323F08003E0680B43D5
:10499C0061681360D06291620123536184F84630E0
:1049AC0084F83E3084F83F3084F8403084F841304D
:1049BC0084F8423084F8433084F8443084F845302D
:1049CC0084F83D30002010BD80F83C20FFF728F81B
:1049DC00B4E7A06823F070032169034323F4407308
:1049EC000B43A16923F080030B431360E368D3628C
:1049FC006368936263691363CEE70120704700BF5D
:104A0C00002C014090F83D30012B1FD1022203688D
:104A1C0080F83D20DA680F4942F001028B42DA60DF
:104A2C0009D0B3F1804F06D00B4A934203D002F564
:104A3C008062934204D19A6802F00702062A07D0DA
:104A4C001A68002042F001021A607047012070477A
:104A5C0000207047002C01400004004041F2111C62
:104A6C0002680346D16821F00101D160116A11EA94
:104A7C000C0F08D140F24441106A084203D111686E
:104A8C0021F0010111600122002083F83D207047C4
:104A9C00704700BF002866D010B590F83D30044632
:104AAC0003F0FF02002B45D0022322682F4984F823
:104ABC003D308A42136842D0B2F1804F11D0A1F53B
:104ACC0094318A420DD001F580618A4209D0A069E7
:104ADC0023F080030343E16813606368D16293623F
:104AEC0010E0A16823F0700320690B4323F440739A
:104AFC00A169034323F08003E0680B4361681360F2
:104B0C00D06291620123536184F8463084F83E30C0
:104B1C0084F83F3084F8403084F8413084F84230D7
:104B2C0084F8433084F8443084F8453084F83D30C0
:104B3C00002010BD80F83C20FFF7AAFFB4E7A06866
:104B4C0023F070032169034323F440730B43A169E1
:104B5C0023F080030B431360E368D36263689362B2
:104B6C0063691363CEE70120704700BF002C01403E
:104B7C00034690F83C00012800F0C5800120F0B4F9
:104B8C0083F83C000C2A08D8DFE802F03B07070743
:104B9C0065070707920707070D00002283F83C20E2
:104BAC000120F0BC70471A680E68106A146A20F471
:104BBC00005024F4805414625568D46924F4E644FB
:104BCC0044EA06248E6840EA0630684EB24200F091
:104BDC00B88055604D68D4610C6915641062D16958
:104BEC00002041F40061D161D16921F48061D1616F
:104BFC00D16941EA0421D161002283F83C20F0BC48
:104C0C0070471A680E68106A146A20F0020024F0CB
:104C1C00010414625568946924F0730434438E685B
:104C2C003043524EB24270D055604D6894610C695D
:104C3C00556310629169002041F0080191619169FE
:104C4C0021F004019161916921439161002283F863
:104C5C003C20F0BC70471A680E68106A146A20F089
:104C6C00200024F0100414625568946924F4E6447E
:104C7C0044EA06248E6840EA06103C4EB24251D0FB
:104C8C0055604D6894610C699563106291690020C0
:104C9C0041F400619161916921F4806191619169A4
:104CAC0041EA04219161002283F83C20F0BC70475A
:104CBC001A680E68106A146A20F4007024F4807468
:104CCC0014625568D46924F0730434438E6840EA46
:104CDC000620264EB2423AD055604D68D4610C691C
:104CEC00D5631062D169002041F00801D161D1690E
:104CFC0021F00401D161D1692143D161002283F8F3
:104D0C003C20F0BC704702207047CE6820F00800B1
:104D1C00304325F44075D1E905673E4320F004008B
:104D2C00354381E7CE6820F0800040EA061025F478
:104D3C004065D1E905673E4320F0400045EA860511
:104D4C009EE74E6925F4804545EA861541E7CE6815
:104D5C0020F4006040EA062025F44055D1E90567AF
:104D6C003E4320F4806045EA0615B5E7002C01406F
:104D7C0090F83C30012B75D002460223012030B450
:104D8C00146882F83C0082F83D30A36823F47F431A
:104D9C0023F07703A3600B68602B65D024D8402BDD
:104DAC007CD04BD9502B17D100204B68CD68216A91
:104DBC0021F00A011943236A23F001032362A3693A
:104DCC0023F0F00343EA0513A3612162A36823F0E7
:104DDC00700343F05703A3600121002382F83D10B8
:104DEC0082F83C3030BC7047B3F5805F38D0B3F5F7
:104DFC00005F10D1D1E90153A0682B43CD6820F49A
:104E0C007F4143EA05230B43A360A368002043F4CE
:104E1C008043A360E0E7702BDED1D1E90153A06899
:104E2C002B43CD6820F47F4143EA05230B43A36059
:104E3C00A368002043F07703A360CDE7202B02D0BA
:104E4C000AD9302BC8D1A168002021F070010B4386
:104E5C0043F00703A360BFE733F01001BCD1F2E7C6
:104E6C000020B9E702207047236A4868CD68216AA0
:104E7C0023F0A00321F010012162A16943EA001381
:104E8C0021F4704141EA0531A1612362A36800203D
:104E9C0023F0700343F06703A3609DE74B68CD6874
:104EAC00216A002021F00A011943236A23F001032F
:104EBC002362A36923F0F00343EA0513A361216283
:104ECC00A36823F0700343F04703A36084E700BF9B
:104EDC00704700BF704700BF704700BF704700BFEE
:104EEC00036810B51A690446910702D5DA6892076F
:104EFC005FD41A69500702D5DA68510746D41A698B
:104F0C00120702D5DA6810072ED41A69D20602D518
:104F1C00DA68D00618D41A69D10702D5DA68D20734
:104F2C005DD41A69100602D5DA6811065FD41A69C5
:104F3C00520602D5DA68500661D41A69910602D578
:104F4C00DA68920643D410BD6FF010010822196183
:104F5C002277DB69204613F4407F64D0FFF7BAFF59
:104F6C00002223682277D6E76FF00801042219612A
:104F7C002277DB692046990752D1FFF7A9FF20461B
:104F8C00FFF7AAFF002223682277BEE76FF0040127
:104F9C000222196122779B69204613F4407F3CD191
:104FAC00FFF796FF2046FFF797FF00222368227732
:104FBC00A5E76FF002010122196102779B699B073B
:104FCC0025D0FFF787FF00222368227791E76FF047
:104FDC0020022046BDE810401A6100F05DB86FF069
:104FEC00010220461A61FCF763FE236899E76FF013
:104FFC00800220461A6100F051F8236897E76FF0A1
:10500C00400220461A61FFF769FF236895E7FFF716
:10501C005FFF2046FFF760FFD5E7FFF75BFFC4E7B4
:10502C00FFF758FFAEE7FFF753FF2046FFF754FF9B
:10503C0096E700BF90F83C20012A27D003460220B7
:10504C001A6830B483F83D0050680C68104D20F09D
:10505C0070002043AA429468506009D0B2F1804F8E
:10506C0006D00C48824203D000F58060824204D105
:10507C00496824F080040C4394600022012183F8D9
:10508C003C2083F83D10104630BC7047022070471E
:10509C00002C014000040040704700BF704700BF67
:1050AC00002865D070B590F84130044603F0FF023B
:1050BC00002B55D0D4E902262421236884F8411012
:1050CC00D968206921F40051A56902436069D9604F
:1050DC001969024321F4405131431961D9682548BB
:1050EC0021F4B05121F00C010A43DA605A69834271
:1050FC0022F4407242EA05025A6136D0FFF7F4FB03
:10510C00626800EB8003920003EB8303B3FBF2F3C2
:10511C004FF0640E00254FF0200C17482168A0FBBF
:10512C00036252090EFB12331B013233A0FB030343
:10513C00120102EB53128A600B69284623F4904348
:10514C000B614B6923F02A034B61CB6843F400538A
:10515C00CB60656484F841C084F842C0656370BD5F
:10516C0080F84020FEF7BAFCA4E7FFF7CDFBC7E7B9
:10517C0001207047003801401F85EB512DE9F843A1
:10518C001D4690F84130202B6BD1884609B117464B
:10519C0012B90120BDE8F88321234FF00009044621
:1051AC00C0F8449080F84130FEF75CFDA3680646D9
:1051BC00B3F5805FA784E78456D0E38C9BB2002BB9
:1051CC007BD02368691C1BD11A681206FCD5B8F178
:1051DC00000F41D018F8012B5A60E28C013A92B2C0
:1051EC00E284E28C92B2002AECD1681C42D11A689B
:1051FC005106FCD5202384F841300020BDE8F8830B
:10520C001A681706E3D42DB1FEF72CFD801B8542DE
:10521C002368D7D203F10C0252E8002F22F4D0728B
:10522C0003F10C0040E800210029F3D103F1140232
:10523C0052E8002F22F0010203F1140040E8002193
:10524C000029F3D1202384F8401084F8413084F8ED
:10525C0042300320BDE8F88339F8022BC2F3080270
:10526C00BAE70220BDE8F8832369002BA5D1C1461B
:10527C009846A2E71A685206BCD42DB1FEF7F2FC90
:10528C00831B9D422368B0D203F10C0252E8002F1D
:10529C0022F4D07203F10C0040E800210029F3D174
:1052AC0003F1140252E8002F22F0010203F1140062
:1052BC0040E800210029F3D1C4E7236895E700BF3B
:1052CC002DE9F8431F4690F84230202B76D18846C2
:1052DC0009B1164612B90120BDE8F88322234FF01C
:1052EC0000090446C0F8449080F84230C0F8309071
:1052FC00FEF7B8FCA3680546B3F5805FA685E68586
:10530C005FD0E38D9BB2EBB1781C236820D11A6877
:10531C009106FCD5B8F1000F4AD0A268B2F5805FB7
:10532C0004D0002A40D12269002A3DD15B68DBB24F
:10533C0008F8013BE28D013A92B2E285E38D9BB213
:10534C00002BE1D1202384F842300020BDE8F88303
:10535C001A689206DED42FB1FEF784FC401B8742FC
:10536C00D2D2236803F10C0252E8002F22F4D0723F
:10537C0003F10C0040E800210029F3D103F11402E1
:10538C0052E8002F22F0010203F1140040E8002142
:10539C000029F3D1202384F8401084F8413084F89C
:1053AC0042300320BDE8F8835B6803F07F03BFE75E
:1053BC005B68C3F3080329F8023BBBE70220BDE896
:1053CC00F8832369002B9CD1C146984699E700BF0E
:1053DC0003460244934200D1704703F8011BF9E7DE
:1053EC0070B500260C4D0D4C641BA410A64209D1BF
:1053FC0000F028F800260A4D0A4C641BA410A642A3
:10540C0005D170BD55F8043B98470136EEE755F8C9
:10541C00043B98470136F2E7A8580008A858000842
:10542C00A8580008AC5800080A44914200F1FF3318
:10543C0000D1704710B511F8014B914203F8014FA0
:10544C00F9D110BDF8B500BFF8BC08BC9E4670473A
:0C545C00F8B500BFF8BC08BC9E467047C5
:105468004D544B415452303031000000303132330A
:105478003435000000000000B71DC1046E3B8209EE
:10548800D926430DDC7604136B6BC517B24D861A0B
:105498000550471EB8ED08260FF0C922D6D68A2F28
:1054A80061CB4B2B649B0C35D386CD310AA08E3C47
:1054B800BDBD4F3870DB114CC7C6D0481EE09345C0
:1054C800A9FD5241ACAD155F1BB0D45BC29697568F
:1054D800758B5652C836196A7F2BD86EA60D9B63FA
:1054E80011105A6714401D79A35DDC7D7A7B9F708B
:1054F800CD665E74E0B6239857ABE29C8E8DA19181
:10550800399060953CC0278B8BDDE68F52FBA582D6
:10551800E5E66486585B2BBEEF46EABA3660A9B763
:10552800817D68B3842D2FAD3330EEA9EA16ADA482
:105538005D0B6CA0906D32D42770F3D0FE56B0DDB1
:10554800494B71D94C1B36C7FB06F7C32220B4CE92
:10555800953D75CA28803AF29F9DFBF646BBB8FB7D
:10556800F1A679FFF4F63EE143EBFFE59ACDBCE8FE
:105578002DD07DEC77708634C06D4730194B043DD3
:10558800AE56C539AB0682271C1B4323C53D002EEA
:105598007220C12ACF9D8E1278804F16A1A60C1BAF
:1055A80016BBCD1F13EB8A01A4F64B057DD0080866
:1055B800CACDC90C07AB9778B0B6567C69901571FF
:1055C800DE8DD475DBDD936B6CC0526FB5E611626E
:1055D80002FBD066BF469F5E085B5E5AD17D1D57B1
:1055E8006660DC5363309B4DD42D5A490D0B19442A
:1055F800BA16D84097C6A5AC20DB64A8F9FD27A544
:105608004EE0E6A14BB0A1BFFCAD60BB258B23B635
:105618009296E2B22F2BAD8A98366C8E41102F836A
:10562800F60DEE87F35DA9994440689D9D662B9021
:105638002A7BEA94E71DB4E0500075E4892636E930
:105648003E3BF7ED3B6BB0F38C7671F7555032FA71
:10565800E24DF3FE5FF0BCC6E8ED7DC231CB3ECF34
:1056680086D6FFCB8386B8D5349B79D1EDBD3ADC9D
:105678005AA0FBD8EEE00C6959FDCD6D80DB8E6039
:1056880037C64F643296087A858BC97E5CAD8A73BB
:10569800EBB04B77560D044FE110C54B38368646B4
:1056A8008F2B47428A7B005C3D66C158E440825597
:1056B800535D43519E3B1D252926DC21F0009F2C7C
:1056C800471D5E28424D1936F550D8322C769B3F3F
:1056D8009B6B5A3B26D6150391CBD40748ED970A06
:1056E800FFF0560EFAA011104DBDD014949B9319DB
:1056F8002386521D0E562FF1B94BEEF5606DADF8AD
:10570800D7706CFCD2202BE2653DEAE6BC1BA9EB06
:105718000B0668EFB6BB27D701A6E6D3D880A5DE6F
:105728006F9D64DA6ACD23C4DDD0E2C004F6A1CD52
:10573800B3EB60C97E8D3EBDC990FFB910B6BCB44D
:10574800A7AB7DB0A2FB3AAE15E6FBAACCC0B8A7C2
:105758007BDD79A3C660369B717DF79FA85BB49209
:105768001F4675961A163288AD0BF38C742DB081CE
:10577800C330718599908A5D2E8D4B59F7AB0854CB
:1057880040B6C95045E68E4EF2FB4F4A2BDD0C471A
:105798009CC0CD43217D827B9660437F4F4600723B
:1057A800F85BC176FD0B86684A16476C9330046136
:1057B800242DC565E94B9B115E565A15877019183B
:1057C800306DD81C353D9F0282205E065B061D0B9E
:1057D800EC1BDC0F51A69337E6BB52333F9D113EBD
:1057E8008880D03A8DD097243ACD5620E3EB152DFA
:1057F80054F6D4297926A9C5CE3B68C1171D2BCCF0
:10580800A000EAC8A550ADD6124D6CD2CB6B2FDFE5
:105818007C76EEDBC1CBA1E376D660E7AFF023EA76
:1058280018EDE2EE1DBDA5F0AAA064F4738627F971
:10583800C49BE6FD09FDB889BEE0798D67C63A804C
:10584800D0DBFB84D58BBC9A62967D9EBBB03E9321
:105858000CADFF97B110B0AF060D71ABDF2B32A6C0
:105868006836F3A26D66B4BCDA7B75B8035D36B5ED
:10587800B440F7B10000000000000000010203047A
:1058880006070809000000000102030402030405DA
:10589800060708090A0B0C0D0E0F10100102000074
:0458A80031190008AA
:0458AC000D190008CA
:1058B0004F4B2B5365743A000024F40001000000A4
:0458C00010000000D4
:0400000508003BA113
:00000001FF
