:020000040800F2
:100000000050002031060008090600080D0600080F
:100010001106000815060008190600080000000077
:100020000000000000000000000000001D060008A5
:100030002106000800000000250600082906000827
:100040007906000879060008790600087906000894
:100050007906000879060008790600087906000884
:100060007906000879060008790600087906000874
:100070007906000879060008790600087906000864
:100080007906000879060008790600087906000854
:100090007906000879060008790600087906000844
:1000A0007906000879060008790600087906000834
:1000B0007906000879060008790600087906000824
:1000C0007906000879060008790600087906000814
:1000D0007906000879060008790600087906000804
:1000E000790600087906000879060008000000007B
:1000F0000000000000000000000000000000000000
:0C01000000000000000000005FF808F1A3
:10010C0010B5054C237833B9044B13B10448AFF345
:10011C0000800123237010BD10000020000000009F
:10012C006C11000808B5034B1BB103490348AFF32E
:10013C00008008BD00000000140000206C110008B5
:10014C004B1E033313D802464FF0FF30114410B44A
:10015C00084C0244014412F8013F83EA106354F83E
:10016C002330914283EA0020F5D110BC70474FF048
:10017C00FF30704784110008D0B586B0044600F0FB
:10018C0039FB012806D0831EDBB2012B05D80220D7
:10019C0006B0D0BD042006B0D0BD0028F8D1012394
:1001AC000026012701A902A8CDE902670494059352
:1001BC0000F096FC0128EDD0831EDBB2012BE6D9B2
:1001CC000028E5D100F02CFC0128E3D0831EDBB223
:1001DC00012BDCD9DCE700BFF8B52E4B2E4F0021EC
:1001EC0018462E4C2E4D3B6005E0AB4220464FF09E
:1001FC0001012CD01C46E27F04F12003FF2AF4D12C
:10020C00C67F002EF1D101B138601C210430FFF7FC
:10021C0097FF3B681A6882420BD1214A944232D034
:10022C001E4A934225D01F4A934219D000263046CD
:10023C00F8BD1A48FFF7A0FF064610B10526304658
:10024C00F8BD1848FFF798FF30463E60F8BD164BD6
:10025C0093F8FF30FF2B19D00E4B124A9342E5D185
:10026C0013F8013C002BE1D1BDE8F8400B48FFF737
:10027C0083BF0D4B93F8FF30002BD8D1BDE8F8406D
:10028C000848FFF779BFDA7FFF2AC9D100231E4641
:10029C003B60CCE7E0EF01082C00002000E00108F7
:1002AC0000F0010800E8010800EF01080D4B0E49B1
:1002BC001B680246002B08BF0B4610B5D3F804C0D0
:1002CC009968DC68D3F810E0C2F800C05160946003
:1002DC00C2F80CE0D3F814C09969C2F810C051618F
:1002EC00002010BD2C00002000E0010884464FF0D7
:1002FC00FF336FF07F422DE9F04188B00068079220
:10030C00DCF804108CF810308CF811308CF81230AA
:10031C008CF813308CF814308CF81530DCF808207D
:10032C00DCF80C300DF1040EAEE80F00DCF8100018
:10033C00DCF814102F4DAEE803001C2101A8FFF7C8
:10034C00FFFE2C680090002C47D02B4A2B4B2034FE
:10035C00944208BF1C4600F04DFA012819D0821EA9
:10036C00D2B2012A03D8022008B0BDE8F0810028DF
:10037C00FAD12746ADF104060DF11C0800233946CD
:10038C00022056F8042F00F05BFA831E0128DBB222
:10039C0003D1042008B0BDE8F081012BE3D9043768
:1003AC000028E1D14645E9D100F03AFB0128F0D014
:1003BC00831EDBB2012BD6D90028D5D10F4B2C6074
:1003CC009C420CD00E4B9C42CED114F8013C002B1D
:1003DC00CAD10A48FFF7D0FEC6E7084CBBE703F5C5
:1003EC00706393F8FF30002BBED10548FFF7C4FEB5
:1003FC00BAE700BF2C00002000F0010800E0010863
:10040C0000E80108202230B591B000210DEB02006C
:10041C0000F07AFE012400234FF4803506A8CDE9C4
:10042C000645CDE90233CDE90433019300F0BAFB64
:10043C0008B172B6FEE701460F240122902301A8F1
:10044C00CDE90411CDE90142039300F09BFD08B105
:10045C0072B6FEE711B030BD30B583B000F02CF9A8
:10046C00FFF7D0FF244B254D9A6942F020029A6188
:10047C009B6903F020030193019B00F03BF92B785F
:10048C0000F5FA74022B17D81CB100F033F9844232
:10049C00FBD8FFF7A1FE2B7801332B700028ECD191
:1004AC00174C2046FFF702FFE37D012B09D0013BDF
:1004BC00DBB2FD2B01D8FEE7FEE7124BD3F8043874
:1004CC009847A1684B1E03330BD8E368013308D05F
:1004DC000D48FFF735FEE368984202D1A37D012B4E
:1004EC0003D0084BD3F804389847054800F00EF8B1
:1004FC0000F056F9DFE700BF00100240300000208A
:10050C0034000020001000080080000870B58368DB
:10051C0086B013F003040BD1054600F06BF90128EB
:10052C0006D0821ED2B2012A05D8022006B070BDB8
:10053C00042006B070BD0028FBD101221A232249E9
:10054C0002A8049101A902940392059300F0C8FA41
:10055C000128EDD0821ED2B2012AE6D90028E8D1BA
:10056C00AB68EBB12646B208920002F1006202F5CC
:10057C00004204F1006112680023022001F5C05111
:10058C0000F05EF9821E0128D2B2D1D0012ACCD95A
:10059C000436B6B20028CCD1AB6834469E42E2D3C6
:1005AC0000F03EFA0128C3D0831EDBB2012BBCD96C
:1005BC000028BED1EB68AA68E8752A6028466B60F3
:1005CC00FFF794FEB5E700BF001800080A4B82B095
:1005DC009A6942F001029A619A6902F00102009252
:1005EC00009ADA6942F08052DA61DB6903F08053D9
:1005FC000193019B02B0704700100240FEE700BF60
:10060C00FEE700BFFEE700BFFEE700BFFEE700BF4E
:10061C00704700BF704700BF704700BF00F05EB866
:10062C00704700BFFFF7FCFF0B480C490C4A002336
:10063C0002E0D458C4500433C4188C42F9D3094A8C
:10064C00094C002301E013600432A242FBD300F0FA
:10065C0063FDFFF701FF7047000000200C00002035
:10066C00B01500081000002070000020FEE700000C
:10067C0038B54FF47A730D4A054611780C4AB3FB22
:10068C00F1F31268B2FBF3F000F09CF808B90F2DEF
:10069C0001D9012038BD0446024629464FF0FF30EF
:1006AC0000F040F8034B20461D6038BD04000020CC
:1006BC000000002008000020074A08B5136803203A
:1006CC0043F01003136000F01BF80F20FFF7D0FF6E
:1006DC00FFF77CFF002008BD00200240034A044BBA
:1006EC0011681B780B441360704700BF4C0000204E
:1006FC0004000020014B1868704700BF4C0000201C
:10070C004FF6FF0C06490302CA6803F4E06302EAE1
:10071C000C02134343F0BF6343F40033CB607047C8
:10072C0000ED00E01C4B00B5DB68C3F30223C3F102
:10073C00070EBEF1040F03F1040C28BF4FF0040E9A
:10074C00BCF1060F1BD94FF0FF3C033B0CFA03FC2A
:10075C0022EA0C024FF0FF3C0CFA0EFC21EA0C01D1
:10076C009940002841EA02010CDB090100F16040CC
:10077C00C9B200F5614080F800135DF804FB00225B
:10078C001346E7E7054B00F00F000901C9B203441B
:10079C0019765DF804FB00BF00ED00E0FCEC00E016
:1007AC00BFF34F8F0549064BCA6802F4E06213434E
:1007BC00CB60BFF34F8F00BFFDE700BF00ED00E043
:1007CC000400FA050138B0F1807F0FD24FF0E0231E
:1007DC004FF0F00C0022072110B4054C586184F83E
:1007EC0023C010469A6110BC1961704701207047F4
:1007FC0000ED00E080B483B000AF0023FB710D4B23
:10080C001B6903F08003002B0DD00A4B0A4A5A6077
:10081C00084B0A4A5A60074B1B6903F08003002BF4
:10082C0001D00123FB71FB7918460C37BD4680BC07
:10083C00704700BF0020024023016745AB89EFCD14
:10084C002DE9704FDFF8D0A182B09AF81840CDE9AD
:10085C000020012C00F0D2809B46012389468AF8A7
:10086C001830FFF747FF4CF2503604466B4D05E04D
:10087C00FFF740FF001BB04200F2BE80EB68DA07C6
:10088C00F6D4EB689B0644BF2023EB60634BDA681D
:10089C00D60658D4DA69D50755D4DB6813F00408AA
:1008AC0051D1019B012B04D0022B0CBF022304233A
:1008BC0001934CF25036594C00984FEA0813C3F18F
:1008CC002001A3F120020BFA01F120FA03F30B43F0
:1008DC0000212BFA02F2CAF81C10134322699BB2B6
:1008EC0042F001022261A9F80030FFF703FF054630
:1008FC0004E0FFF7FFFE401BB04275D8E368D90750
:10090C00F7D4E3689A0644BF2023E360E368DB0670
:10091C003CD4E369DD0739D4E06810F0040035D12C
:10092C00236908F1010823F001032361019B5FFA9D
:10093C0088F2934209F10209BED800238AF81830D4
:10094C0002B0BDE8708F354BDB6813F0100359D142
:10095C000421324AD268540706D50B46DAF81C201B
:10096C0042F00102CAF81C202C4AD169C80709D5EB
:10097C00DAF81C1041F00401CAF81C10D16921F0FE
:10098C000101D161254A0120D360D6E7234BDA68F7
:10099C0012F010022ED014211022DAF81C3043F081
:1009AC000203CAF81C301D4BDB68580706D50A46F3
:1009BC00DAF81C3043F00103CAF81C30174BD96924
:1009CC00C90709D5DAF81C1041F00401CAF81C104B
:1009DC00D96921F00101D961104B0120DA601A6943
:1009EC0022F001021A61A8E72369032023F0010316
:1009FC002361A2E70421D6E703209EE7022002B080
:100A0C00BDE8708FDAF81C20142142F0020210238A
:100A1C00CAF81C209DE700BF5000002000200240B7
:100A2C00034A0020136943F080031361704700BF31
:100A3C000020024070B50446FFF75CFE0546264ECA
:100A4C00601C36D1244AD368D907FCD4224BDA680F
:100A5C00960644BF2022DA601F4BDA68D50607D40D
:100A6C00DA69D40704D4D86810F0040000D170BD42
:100A7C00194BDB6813F0100326D10421164AD268F7
:100A8C00500705D50B461549CA6942F00102CA61E7
:100A9C00114AD169C90708D51048C16941F0040150
:100AAC00C161D16921F00101D1610B4A0120D360F0
:100ABC0070BDF368DB07C9D524B1FFF71BFE401BE3
:100ACC00A042BDD9032070BD04481421C269102373
:100ADC0042F00202C261D1E7002002405000002027
:100AEC002DE9F8432D4E337E012B54D00123337660
:100AFC0003688146022B31D04CF250308846FFF708
:100B0C0099FF074678BB4FF0FF33C8F80030D9E99E
:100B1C00025305EB83239D4225D2214C07E005F5BA
:100B2C008065D9E9023203EB8223AB421CD9F76111
:100B3C0023694CF2503043F0020323616561236951
:100B4C0043F040032361FFF775FF236923F0020391
:100B5C0023610028E3D0C8F8005005E04CF2503077
:100B6C00FFF768FF20B1012000233376BDE8F8833E
:100B7C000B4CF06123694CF2503043F004032361B9
:100B8C00236943F040032361FFF754FF236923F0EB
:100B9C0004032361E8E70220BDE8F883500000203D
:100BAC0000200240002800F0B6812DE9F0410368D6
:100BBC000446DD0782B035D59A494A6802F00C022A
:100BCC00042A00F0EF804A6802F00C02082A00F0B8
:100BDC00E5806368B3F5803F10D0002B00F00C81EA
:100BEC00B3F5A02F00F082818E4B1A6822F480326C
:100BFC001A601A6822F480221A6004E0894A136889
:100C0C0043F480331360FFF775FD864E054605E00F
:100C1C00FFF770FD401B642800F2EA8033689A03EA
:100C2C00F6D523689F0728D57E4A516811F00C0F22
:100C3C0000F08D80516801F00C01082900F08380D0
:100C4C002369002B00F018810122774B754E1A6036
:100C5C00FFF750FD054605E0FFF74CFD401B022851
:100C6C0000F2C68033689807F6D53368626923F0C2
:100C7C00F80343EAC203336023681A071FD45D07E5
:100C8C0042D5684BDA69D0007DD50025674E3368B4
:100C9C00D90540F19D80E368012B00F0FE80002B0C
:100CAC0000F0CA80052B5F4B1A6A00F02C8122F0F1
:100CBC0001021A621A6A22F004021A62F2E0A369B3
:100CCC00002B4FD00122584B564EC3F88024FFF70F
:100CDC0011FD054605E0FFF70DFD401B022800F253
:100CEC008780736A9B07F6D5514B524A1B68A2FB4F
:100CFC0003235B0A019300BF019B5A1E0192002B38
:100D0C00F9D123685D07BCD4E069C0B1454D6B686F
:100D1C0003F00C03082B00F0D8800022424B022871
:100D2C001A6600F0FA80FFF7E5FC044604E0FFF7D2
:100D3C00E1FC001B02285BD82B689B01F7D4002038
:100D4C0002B0BDE8F0815268D6033FF579AF354A61
:100D5C001268950730D52269012A2DD0012002B0E6
:100D6C00BDE8F081304A2F4EC2F88034FFF7C2FC48
:100D7C00054604E0FFF7BEFC401B022838D8736A16
:100D8C009F07F7D4BDE7DA69012542F08052DA619A
:100D9C00DB6903F080530093009B77E74A68D0032C
:100DAC007FF517AF1F4A126891037FF53BAF62685E
:100DBC00002A7FF437AFD1E71A4960690A6822F03C
:100DCC00F80242EAC0020A601A077FF558AF76E7CC
:100DDC00336843F480733360FFF78CFC0746336849
:100DEC00DA053FF558AFFFF785FCC01B6428F6D930
:100DFC00032002B0BDE8F0810A4D2B6823F4803348
:100E0C002B602B6823F480232B60FFF773FC0646C2
:100E1C0004E0FFF76FFC801B6428E9D82B689B0368
:100E2C00F7D4FEE600100240000042420070004081
:100E3C0000000020D34D6210504E41F28838336AC6
:100E4C0023F001033362336A23F004033362FFF7A8
:100E5C0051FC074604E0FFF74DFCC01B4045C7D8CA
:100E6C00336A9807F7D4002D3FF44EAF434AD36949
:100E7C0023F08053D36147E7414A404E1360FFF79C
:100E8C0039FC054604E0FFF735FC401B0228AFD8BF
:100E9C0033689907F7D42368EFE6384A136A43F0AE
:100EAC0001031362FFF726FC41F288380646334FE4
:100EBC0004E0FFF71FFC801B404599D83B6A9B0759
:100ECC00F7D5002D3FF420AFD0E701283FF438AF21
:100EDC006B68226A03F4803191427FF43FAF606A01
:100EEC0003F47013181A18BF012029E703F180438B
:100EFC00A3F53C331A6842F480221A601A6842F453
:100F0C0080321A607FE642F004021A621A6A42F0DA
:100F1C0001021A62C6E701207047FFF7EBFB064699
:100F2C0005E0FFF7E7FB801B02283FF661AF2B685B
:100F3C009901F6D4236AB3F5803F05D16A68A1689C
:100F4C0022F400320A436A6001200C4D616A6A681F
:100F5C000B4322F474120A4913436B600866FFF7C3
:100F6C00C9FB044605E0FFF7C5FB001B02283FF652
:100F7C003FAF2B689A01F6D5E1E600BF00100240A6
:100F8C0000004242002800F0A180564A2DE9F041B1
:100F9C001368044603F007038B420D460CD213680A
:100FAC0023F007030B431360136803F007038B4212
:100FBC0002D00120BDE8F08123689E0714D55807A4
:100FCC0004D549494A6842F4E0624A60190704D5DD
:100FDC0045494A6842F460524A604349A0684A68ED
:100FEC0022F0F00202434A60DA0720D562683E4BD9
:100FFC00012A1B686CD0022A65D09E07D9D53A4EBF
:10100C0041F28838736823F0030313437360FFF7CE
:10101C0071FB074604E0FFF76DFBC01B40455AD837
:10102C007368626803F00C03B3EB820FF3D12D4AA3
:10103C00136803F00703AB4209D9136823F00703C5
:10104C002B431360136803F00703AB42B1D1236841
:10105C00580706D52449E0684A6822F4E062024346
:10106C004A60190707D5204A2169536823F4605355
:10107C0043EAC10353601C494A6802F00C03082B75
:10108C0010D01A4B184A1A4852681A49C2F3031264
:10109C00805C194AC34008681360FFF7E9FA002026
:1010AC00BDE8F0811548C2F38343D203C35C14D569
:1010BC000E484A6800FB03F31149C2F340428A5CB4
:1010CC00B3FBF2F3DEE79F0199D472E7012070477E
:1010DC009B0394D46DE703206CE70A4A02FB03F3ED
:1010EC00D0E700BF002002400010024000127A003E
:1010FC00841500080800002000000020941500084A
:10110C00A415000800093D0003460244934200D197
:10111C00704703F8011BF9E770B500260C4D0D4C18
:10112C00641BA410A64209D100F01AF800260A4D3F
:10113C000A4C641BA410A64205D170BD55F8043BA3
:10114C0098470136EEE755F8043B98470136F2E72D
:10115C00A8150008A8150008A8150008AC1500086B
:10116C00F8B500BFF8BC08BC9E467047F8B500BF88
:08117C00F8BC08BC9E46704758
:1011840000000000B71DC1046E3B8209D926430D3F
:10119400DC7604136B6BC517B24D861A0550471ED7
:1011A400B8ED08260FF0C922D6D68A2F61CB4B2B77
:1011B400649B0C35D386CD310AA08E3CBDBD4F381F
:1011C40070DB114CC7C6D0481EE09345A9FD5241BF
:1011D400ACAD155F1BB0D45BC2969756758B565257
:1011E400C836196A7F2BD86EA60D9B6311105A67F7
:1011F40014401D79A35DDC7D7A7B9F70CD665E749F
:10120400E0B6239857ABE29C8E8DA19139906095FE
:101214003CC0278B8BDDE68F52FBA582E5E6648616
:10122400585B2BBEEF46EABA3660A9B7817D68B336
:10123400842D2FAD3330EEA9EA16ADA45D0B6CA05E
:10124400906D32D42770F3D0FE56B0DD494B71D97E
:101254004C1B36C7FB06F7C32220B4CE953D75CA96
:1012640028803AF29F9DFBF646BBB8FBF1A679FFB6
:10127400F4F63EE143EBFFE59ACDBCE82DD07DECDE
:1012840077708634C06D4730194B043DAE56C5396E
:10129400AB0682271C1B4323C53D002E7220C12AA6
:1012A400CF9D8E1278804F16A1A60C1B16BBCD1FA6
:1012B40013EB8A01A4F64B057DD00808CACDC90CEE
:1012C40007AB9778B0B6567C69901571DE8DD475EE
:1012D400DBDD936B6CC0526FB5E6116202FBD06626
:1012E400BF469F5E085B5E5AD17D1D576660DC5326
:1012F40063309B4DD42D5A490D0B1944BA16D8406E
:1013040097C6A5AC20DB64A8F9FD27A54EE0E6A1AD
:101314004BB0A1BFFCAD60BB258B23B69296E2B265
:101324002F2BAD8A98366C8E41102F83F60DEE87E5
:10133400F35DA9994440689D9D662B902A7BEA94AD
:10134400E71DB4E0500075E4892636E93E3BF7ED2D
:101354003B6BB0F38C7671F7555032FAE24DF3FEE5
:101364005FF0BCC6E8ED7DC231CB3ECF86D6FFCB65
:101374008386B8D5349B79D1EDBD3ADC5AA0FBD82D
:10138400EEE00C6959FDCD6D80DB8E6037C64F648D
:101394003296087A858BC97E5CAD8A73EBB04B7745
:1013A400560D044FE110C54B383686468F2B474205
:1013B4008A7B005C3D66C158E4408255535D4351CD
:1013C4009E3B1D252926DC21F0009F2C471D5E280D
:1013D400424D1936F550D8322C769B3F9B6B5A3BC5
:1013E40026D6150391CBD40748ED970AFFF0560E85
:1013F400FAA011104DBDD014949B93192386521D4D
:101404000E562FF1B94BEEF5606DADF8D7706CFC4C
:10141400D2202BE2653DEAE6BC1BA9EB0B0668EF84
:10142400B6BB27D701A6E6D3D880A5DE6F9D64DAC4
:101434006ACD23C4DDD0E2C004F6A1CDB3EB60C90C
:101444007E8D3EBDC990FFB910B6BCB4A7AB7DB0CC
:10145400A2FB3AAE15E6FBAACCC0B8A77BDD79A304
:10146400C660369B717DF79FA85BB4921F46759644
:101474001A163288AD0BF38C742DB081C33071858C
:1014840099908A5D2E8D4B59F7AB085440B6C950DC
:1014940045E68E4EF2FB4F4A2BDD0C479CC0CD43F4
:1014A400217D827B9660437F4F460072F85BC17654
:1014B400FD0B86684A16476C93300461242DC5657C
:1014C400E94B9B115E565A1587701918306DD81C5C
:1014D400353D9F0282205E065B061D0BEC1BDC0F74
:1014E40051A69337E6BB52333F9D113E8880D03AD4
:1014F4008DD097243ACD5620E3EB152D54F6D429FC
:101504007926A9C5CE3B68C1171D2BCCA000EAC81B
:10151400A550ADD6124D6CD2CB6B2FDF7C76EEDBB3
:10152400C1CBA1E376D660E7AFF023EA18EDE2EE93
:101534001DBDA5F0AAA064F4738627F9C49BE6FD3B
:1015440009FDB889BEE0798D67C63A80D0DBFB849B
:10155400D58BBC9A62967D9EBBB03E930CADFF9733
:10156400B110B0AF060D71ABDF2B32A66836F3A213
:101574006D66B4BCDA7B75B8035D36B5B440F7B1BB
:10158400000000000000000001020304060708092F
:1015940002030405060708090A0B0C0D0E0F1010B0
:0415A4000102000040
:0415A8003101000805
:0415AC000D01000825
:0C15B0000024F400010000001000000006
:0400000508000631B8
:00000001FF
